:0200000490105A
:100000000000022001ED16909DED1690DD6A109023
:100010009DED16909DED16909DED16900000000050
:100020000000000000000000000000009DED1690A0
:100030009DED1690000000009DED1690255E10903D
:100040009DED16909DED16909DED16909DED1690F0
:100050009DED16909DED1690612B1090892B1090C0
:10006000B12B1090D92B1090012C1090D5030000CB
:10007000E9030000FD030000110400002504000056
:10008000390400004D0400009DED1690B96E1090EB
:10009000C16E10909DED16909DED1690292C10903C
:1000A0009DED16907D4310909DED16906D43109040
:1000B0008D4310909D431090AD4310902D231090D0
:1000C000292310909DED16909DED16909DED1690B4
:1000D0009DED1690153C00005D3D0000D13E0000F6
:1000E000692C10909DED169000000000694410905E
:1000F0004144109079441090314410906104000004
:100100009DED16909DED1690BD4310909DED1690BF
:1001100045400000B9410000CD43109055031690B2
:1001200075040000890400009D040000B104000073
:10013000C50400009DED16909DED16909DED169066
:1001400000000000000000000000000000000000AF
:10015000D9040000ED040000010500002D4300005B
:100160009DED16909DED16909DED16909DED1690CF
:100170009DED169095F915909DED16909DED1690BC
:100180009DED16909DED1690A144000015460000CF
:100190009DED16909DED16909DED16909DED16909F
:1001A0009DED16909DED16909DED169000000000BF
:1001B0009DED16909DED16909DED169035231090B7
:1001C000312310909DED169000000000000000000B
:1001D00000000000000000009DED169000000000EF
:1001E000000000000000000000000000000000000F
:1001F00000000000000000009DED16909DED16909F
:100200009DED16909DED1690000000009DED16905E
:100210008944109099441090A94410909DED169037
:100220009DED1690000000009DED1690000000006E
:100230009DED16909DED1690000000009DED16902E
:100240009DED16909DED16909DED16909DED1690EE
:100250009DED16909DED16909DED16909DED1690DE
:100260009DED16909DED16909DED16909DED1690CE
:100270009DED16909DED1690714A00000000000063
:100280009DED16909DED16909DED16909DED1690AE
:10029000000000009DED16909DED16909DED1690CE
:1002A0009DED16909DED16909DED169089470000EE
:1002B000FD4800009DED16909DED1690C96E1090C2
:1002C0009DED16909DED16909DED1690000000009E
:1002D0000F4A037A0168D35C10B4CC58CA1824F0D2
:1002E0000104CC501368DB07FCD4037D1F2B07D916
:1002F000203B38225DF8044B02FA03F3CB607047D1
:1003000038225DF8044B02FA03F38B60704700BF9C
:10031000E4CC1790436901461A6830B41F4C22F0B0
:100320000102A3421A604FF0640202D92FE0013AA1
:1003300029D01868C04310F00100F8D04A68486D11
:100340009061EFF31180502282F312884C68C0B2A2
:100350008D6C226822EA05020D6D2A43226080F32B
:1003600011888A68D1E9084012681C605861D1E997
:100370000A405C6098600C6BB1F86C00DC60002394
:10038000D06201200B7730BC7047013AFBD018686F
:10039000C04310F00100F8D0D0E700BFFFFF0158C4
:1003A000002A4FEA014C034630B508BFE64600F18B
:1003B000C00514BF8E468C46002419680C3353F8D0
:1003C000042C43F8084C41EA0C0142EA0E02AB420D
:1003D00043F80C1C43F8042CEFD1D0F8C03043EAAA
:1003E0000E03C0E93144C0F8C03030BD10B40C4C2D
:1003F0002368002B11DD002004F1040C0146DCF819
:10040000AC3003F1C00259600C339342FBD1013090
:1004100023680CF5887C8342F1DC5DF8044B70475F
:10042000081F0020F0B5404C04EB401393F86034F3
:1004300003B9F0BD3D4B42011D7893F801C06545FD
:100440000CD00CEB4C0E03EBCE0E9EF804604FEA82
:100450004C0E771E012F5BD9032E53D02244A2F8F5
:100460004414EFF31181902383F3128892F84634F9
:10047000C9B2B2F8440443EA400300209BB282F8B8
:10048000460481F31188190994F8440581EA13217F
:100490005940D8B1C9431B01D2F85C540124D2F8A9
:1004A00048049BB201F00F01D5F8AC2084400B4307
:1004B00002F1C000590013F4004F8BB202D1516811
:1004C000214351600C329042F4D1F0BDD2F848047F
:1004D0001B01D2F85C2401F00F0110309BB2012403
:1004E000D2F8AC200B43844002F1C000590013F451
:1004F000004F8BB202D15168214351600C329042BF
:10050000F4D1F0BD0CF1010606F00306AE42A5D011
:10051000E64403EBCE030344597C00299ED0A31884
:10052000012083F8460499E7081F002000000024FA
:10053000704700BF024B03EB401393F86104704710
:10054000081F0020BFF34F8F0549064BCA6802F40D
:10055000E0621343CB60BFF34F8F00BFFDE700BFE6
:1005600000ED00E00400FA05426A806A131A58425E
:100570005841704790F84F3830B53BB990F84D1856
:10058000012490F84E38DAB2914200D830BD04FA16
:1005900003F2B0F8565801332A43A0F85628F2E780
:1005A0000379024613F0010005D0D369D068116ABF
:1005B00001385B1A1840704710B503790446DB0711
:1005C00001D4002010BDFFF7EBFF0028F9D0236A0B
:1005D0006269D05C236AE268C0B20133B3FBF2F116
:1005E00002FB11332362EDE703799B070AD5436AC7
:1005F0008269D154436A02690133B3FBF2F102FB11
:1006000011334362704770470171704703790246A6
:1006100013F0020007D0536A1069916A01385B1A1F
:100620000340DBB2C01A70470C4B4FF0E02C10B403
:100630005A6EDCF81800596E8A42F9D1996E8842D8
:10064000F6D8DC6E4FF47A7101FB04F31B1AB3FB8E
:10065000F4F35DF8044B01FB023070470000002406
:1006600007280AD84FF4B472054B02FB0033B3F8E5
:100670004805B0FA80F0400970470020704700BF7D
:10068000081F0020072807D8044B4FF4B47101223B
:1006900001FB003383F84A25704700BF081F002084
:1006A00010B584464FEA810E102312F4004F4FEA32
:1006B000420214BF0E240724013B92B2CCF8004042
:1006C000F444F2D100EB81128C010351122042F864
:1006D000213010BD10B584464FEA810E0424130B5F
:1006E000013C4FEA021203EB430392B203F11803F9
:1006F000CCF80030F444F2D100EB01130A0184502D
:10070000062043F8214010BD704700BF704700BF6E
:1007100000EB4000024B03EBC00313F8570C70478B
:1007200000300020064B93F85820824206D900EB97
:10073000400003EBC00353F8540C7047002070478F
:1007400000300020072808D8044B03EB401393F82F
:10075000602412B1012283F846247047081F00204C
:10076000072808D8054B03EB4013B3F84404B0FA4C
:1007700080F0400970470020704700BF081F00202C
:10078000064B93F85830834205D9054B03EB4013D1
:10079000D3F8500470470020704700BF003000209D
:1007A000081F00202DE9F04F934D4FF49C7B87B03C
:1007B00002460BFB005BDBF87060346DE10700F173
:1007C000C68023070AD5082333654FF49C7303FBC7
:1007D0000253D3F884100131C3F88410A00517D454
:1007E000A10112D54FF000733365736C1B060CD555
:1007F000B3694FF49C7123F0010301FB0255B3610F
:10080000D5F8A0310133C5F8A03107B0BDE8F08FAD
:100810004FF49C774FF4007302FB07F7336505EB49
:10082000070EDEF89031DEF870A00133CEF890317B
:100830009EF889319EF888119942D1D06F4B93462A
:1008400003EB022907F11C039FED697B9846CDE974
:100850000246DAF8C44014F4001067D19EF88911FA
:10086000C4F304448B1C2601C9B207EB03120096A3
:1008700009EB041C2A4492F87520002A5AD007EB91
:1008800001122A44D2F8882022F0604242F08042CD
:1008900046F809200A0107EB03132B4493F8746010
:1008A0003604CCF8046093F874608DED047B3EB39D
:1008B0003A44012E2A4492F88C3004931ED010231F
:1008C000012013FB01814E4B19440346CDE900A4DE
:1008D00003F0FC0203F0030311F801AF01301832FA
:1008E000DB006A440AFA03F352F8084C234342F847
:1008F000083CC3B29E42EBD8DDE900A4DDE9040662
:100900000123CCF80800CCF80C6003FA04F4CAF810
:10091000D0409EF88931013303F00F038EF88931FE
:100920009EF889219EF888319A4292D1DDE90246EB
:100930005A4655E707EB0112324E2A44D2F8882076
:1009400006EA8242009E46F809200A01A3E7012335
:100950003365D6F8A4305F063FF433AF2A4B074621
:10096000019403444FEA0328D6F8A430C3F3052AC0
:1009700008EB0A134FEA0A1252F808005A6810F0FE
:1009800080499968C2F30342D3F80CE014BF20F009
:100990006040C0F38A40082A134628BF08239AB152
:1009A00000240DF10F0C0096224602F00302032CE6
:1009B0008CBF76460E460134D200D640E2B2934256
:1009C0000CF8016FF1D8009EDBF88040C6F8A8A0B3
:1009D0002CB1B9F1000104AA18BF0121A047D6F833
:1009E000A4305C06C0D1019C3A46EAE6AFF3008031
:1009F00000000000000000000000002430AC0040B7
:100A0000700000240000FC1FAC0040001B4B93F85A
:100A10005C2092B353F8681C09B100200860012AD9
:100A20002BD053F8501C09B100200860022A24D0B2
:100A300053F8381C09B100200860032A1DD053F870
:100A4000201C09B100200860042A16D053F8081CA5
:100A500009B100200860052A0FD0196909B10020EA
:100A60000860062A09D0996A09B100200860072A9F
:100A700003D01B6C0BB100221A60704700300020BD
:100A80001B4B93F85C2092B353F8681C09B100200B
:100A90000860012A2BD053F8501C09B100200860CF
:100AA000022A24D053F8381C09B100200860032A18
:100AB0001DD053F8201C09B100200860042A16D06C
:100AC00053F8081C09B100200860052A0FD01969E5
:100AD00009B100200860062A09D0996A09B10020EE
:100AE0000860072A03D01B6C0BB100221A60704704
:100AF00000300020C04B1B78002B40F04781BF4BDB
:100B000093F85C20002A00F0418113F8581C30B59E
:100B100000294AD153F8681C0020012A086043D9F3
:100B200013F8401C002962D153F8501C0020022AFF
:100B3000086039D913F8281C002940F0C38053F805
:100B4000381C0020032A08602ED913F8101C002935
:100B500040F0DA8053F8201C0020042A086023D9D2
:100B6000197A002940F0F18053F8081C0020052A6A
:100B7000086019D993F82010002940F008811969FC
:100B80000020062A08600FD993F83810002957D1A1
:100B9000996A0020072A086006D993F85020002A95
:100BA00070D11B6C00221A6030BD53F8642C910A7E
:100BB000A1F58011522940F20A814FF0FE0CEFF3AB
:100BC0001181502080F312888D4C4FF02C0E556A05
:100BD000C9B250690EFB0C4C013540F00100CCF855
:100BE0004054506181F3118893F85C2092E753F8E8
:100BF0004C2C910AA1F58011522940F2EC804FF063
:100C0000FE0CEFF31181502080F312884FF02C0E70
:100C1000556A7B4CC9B2506901350EFB0C4440F05B
:100C20000100C4F84054506181F3118893F85C20AE
:100C3000002053F8501C022A08603FF67BAFB3E750
:100C4000DA6A910AA1F58011522900F2E1806D481B
:100C500010F801C0EFF31181502080F312884FF09B
:100C60002C0E556A664CC9B2506901350EFB0C4416
:100C700040F00100C4F84054506181F3118893F8AA
:100C80005C2085E75A6C910AA1F58011522900F287
:100C9000C2805C4810F801C0EFF31181502080F34E
:100CA00012884FF02C0E556A554CC9B25069013567
:100CB0000EFB0C4440F00100C4F84054506181F335
:100CC00011886EE753F8342C910AA1F5801152294E
:100CD00040F285804FF0FE0EEFF31181502080F33B
:100CE00012884FF02C0C556A454CC9B25069013539
:100CF0000CFB0E4440F00100C4F84054506181F3F5
:100D0000118893F85C201AE753F81C2C910AA1F57E
:100D10008011522967D94FF0FE0CEFF3118150205A
:100D200080F312884FF02C0E556A354CC9B25069C9
:100D300001350EFB0C4440F00100C4F840545061F2
:100D400081F3118893F85C2004E753F8042C910A8E
:100D5000A1F5801152294AD94FF0FE0CEFF3118111
:100D6000502080F312884FF02C0E556A244CC9B2E3
:100D7000506901350EFB0C4440F00100C4F84054AA
:100D8000506181F3118893F85C20EDE670475A6951
:100D9000910AA1F58011522936D94FF0FE0CEFF3DC
:100DA0001181502080F312884FF02C0E556A144C9C
:100DB000C9B2506901350EFB0C4440F00100C4F883
:100DC0004054506181F3118893F85C20D7E60D48B8
:100DD00010F801C0F3E60B4810F801C011E709480C
:100DE00010F801E078E7074810F801C095E70548DA
:100DF00010F801C0B2E700BFCC0200200030002094
:100E000000000024D8201790044810F801C0C6E75D
:100E10004FF0FE0C1EE74FF0FE0C3DE7D820179078
:100E200000EE100AB8EE400A704700BFBCEEC00AE0
:100E300010EE103A98B2704703460122002083F862
:100E400029207047426A08B50346C06B996B02447B
:100E50005A6201B18847002008BD00BF036B0246FB
:100E60001B681B6A5B685B7813F0010008BF82F89F
:100E70002900704782634162704700BF704700BF1E
:100E8000043070470C4B93F8B026D3F8AC160244EC
:100E90000144D2B2C3F8AC1683F8B02693F8B0265A
:100EA000120605D593F8B02682F0800283F8B026AA
:100EB000024B01225A70704700000024CC0200202F
:100EC0002DE9F84F164FD7F8B456ED0A23D0002677
:100ED000DFF850A007F5D769B0467419D7F8B816EF
:100EE0004FF01003524648BF0134D1F828B04846AD
:100EF000C7F8F0866410E102D8470F280BDD094BD4
:100F000003F1100153F8042B013207D18B42F9D1C0
:100F10002546B542E1DCE802BDE8F88F661CF8E73B
:100F200000000024801C0124194B596ED3F8F826C8
:100F30008A1A322A05DCD3F80C278A1A002A11DC17
:100F40007047D3F8FC1649B193F80827888802F057
:100F500001020968120100FA02F28A610022C3F854
:100F60000C277047D3F8FC266AB11068323192889A
:100F700010B44469C3F80C1722425DF8044B18BF43
:100F80001204826170473231C3F80C17704700BFFA
:100F900000000024074AD2F8FC364BB192F808272B
:100FA0009988186802F001031B0101FA03F38361B9
:100FB0000020704700000024044B4FF4007C002008
:100FC000D3F81837A2F800C00B6070470000002467
:100FD00000207047012070470120704700207047B3
:100FE00010B41C6994420CD394460A4661448C4266
:100FF000996938BFA4EB0C0261445DF8044B70F0B2
:1010000095BC5DF8044B704710B504466FF0A0F92D
:101010000146204689B2BDE81040FFF703BA00BF81
:1010200010B500EB4000084C04EBC00414ED187A36
:1010300054ED177AE7EE007AB0EE670A6FF088F9A0
:1010400054F8683C186010BD0030002002692DE99A
:10105000F843C36812EA030828D005460E464FF04D
:101060000047B8FA88F327FA03F21B3BD24308EA99
:1010700002082A61042B16D8DFE803F03B30251A5A
:101080000300B36A002B3FD003F1FF3900231FFA9E
:1010900089F9B362746A34B1236820464946984797
:1010A0006468002CF8D1B8F1000FDAD1BDE8F883FC
:1010B00070680028F7D0696B036889B29847B8F167
:1010C000000FCED1F2E7B0680028ECD0A96B03681E
:1010D00089B29847B8F1000FC3D1E7E7F06800285C
:1010E000E1D0E96B036889B29847B8F1000FB8D135
:1010F000DCE730690028D6D0296C036889B29847AC
:10110000B8F1000FADD1D1E7EB6A1FFA83F9C1E75F
:1011100010B590F83DE0BEF1020F76D0144690F87D
:101120003D208446012A02D1022280F83D200C296C
:1011300021D8DFE801F007202020222020203A20BB
:1011400020205200DCF824003449DCF80020C16380
:101150003349C16490F8341001290CD0012180F882
:10116000341090F83510012952D000224FF400635A
:1011700080F834204365002010BDDCF828002749A2
:10118000DCF80020C1632649C16490F834100129BD
:10119000F1D0012180F8341090F835100129E4D104
:1011A000383221465DF01CF9E5E7DCF82C001B49DC
:1011B000DCF80020C1631A49C16490F83410012999
:1011C000D9D0012180F8341090F835100129CCD104
:1011D0003C3221465DF004F9CDE7DCF830000F49E0
:1011E000DCF80020C1630E49C16490F83410012975
:1011F000C1D0012180F8341090F835100129B4D104
:10120000403221465DF0ECF8B5E75FFA8EF010BD94
:10121000343221465DF0E4F8ADE700BF99A51590A2
:1012200041A51590F8B5A0F668042379DB0725D50C
:10123000657994F84C3805F001073D46FBB1D4F8C8
:1012400048341A68D36A5B08536294F8503823B163
:10125000B4F85A380133A4F85A3885F00101606CAB
:1012600064F0E6FA012384F84F38002384F84D38FF
:1012700084F84E38A4F8563884F84C38F8BD94F801
:101280004F68012E03D194F84D3884F84E3820462B
:10129000FFF770F94EB9012385EA030184F84F384E
:1012A000606CBDE8F84064F0C3BA0023394684F8A6
:1012B0004F38F5E738B5A0F668040022344D606C6D
:1012C00003685A62A1F12903302B31D895F8E7372A
:1012D00095F8E8170133DBB2012B85F8E73709D918
:1012E000B4F8563885F8E7275B08A4F856384B1C45
:1012F00085F8E83795F8E8270023082AA4F8583835
:1013000015D185F8E837B5F8EA3701339BB2032BDE
:10131000A5F8EA3708D92379DB0705D5E36A94F8FD
:10132000560843B3216B98470023A4F8563838BDBC
:101330005B396C290CD8B4F8563885F8E7275B0878
:1013400043F08003A4F8563895F8E8370133CFE727
:1013500094F85138002BCDD1012185F8E737A5F855
:10136000EA37802384F85118A4F8563885F8E8172E
:1013700064F05EFABEE7E3696269D054E369E2684B
:101380000133B3FBF2F102FB1133E361CCE700BFA1
:101390000000002438B55DF097FD0D490D4CD1F8E3
:1013A000FC20A4FB00400C4D42F080720B4B800CE3
:1013B000C1F8FC204FF060420949E866C2F8B01F4E
:1013C00000225A601A6842F001021A6038BD00BF5C
:1013D00000ED00E083DE1B4300000024001000E06D
:1013E00055CEACC59B4AD36813F0040FD3682DE9E2
:1013F0007043994DB6B040F0DD81964C00230293C6
:10140000A36943F44043A361A36903F440430293F7
:10141000029BA3699E04FCD5442200210AA870F017
:10142000E3FA00238B4A0593A36923F44043A361A5
:10143000A36903F440430593059B93699C04FCD581
:1014400001204FF4803102220423CDE908014FF43A
:10145000827108A81893CDE91122CDE91331CDE9A5
:10146000163201210022159119925DF0D7FA00B1D0
:10147000FEE77A4A136803F00F03022B0BD81368B8
:1014800023F00F0343F003031360136803F00F030B
:10149000032B00D0FEE7724A936903F070033F2BE1
:1014A00005D8936923F0700343F0400393616C4ABD
:1014B000D36903F070033F2B05D8D36923F0700381
:1014C00043F04003D361664AD36903F4E063B3F5A4
:1014D000806F05D2D36923F4E06343F48063D36162
:1014E0005F4A136A03F070033F2B05D8136A23F099
:1014F000700343F040031362594B9A69100705D4F7
:101500009A6922F00F0242F008029A61544A9369E4
:1015100023F47063936113689901BBD5136941F299
:10152000883023F0070343F003031361D5F8EC1769
:1015300005E0D5F8EC375B1A834200F24F8113695E
:1015400003F03803182BF4D1936903F00F03082B31
:1015500005D9936923F00F0343F0080393613F4BD0
:101560001A6812F00C0F0AD01A6822F00F0242F02B
:1015700003021A601B6803F00F03032B8AD1384A59
:10158000936903F07003402B05D9936923F070032E
:1015900043F040039361324AD36903F07003402B58
:1015A00005D9D36923F0700343F04003D3612C4A7B
:1015B000D36903F4E063B3F5806F05D9D36923F4ED
:1015C000E06343F48063D361254A136A03F0700338
:1015D000402B05D9136A23F0700343F040031362D4
:1015E0001F4C5DF071FCA269A369C2F303221D4B7D
:1015F00013441D4A93F8543003F01F0320FA03F3F9
:10160000906853605CF0D4F9002840F0EB80102221
:101610000F90119008A808925DF000FA002840F0A1
:10162000DC802368114943F080032360D4F8F43050
:1016300043F00203C4F8F430D4F8F43003F00203AA
:101640000393039A0A6A0A4B42F001020A62D5F830
:10165000EC1712E00048025800000024002000525D
:1016600000440258D8201790CC02002000040058F3
:1016700000E20400013B00F0B280D5F8EC27914273
:10168000F8D0D5F8EC27D5F8EC379B1A0A2BFAD905
:10169000554C23689B04FCD54FF480224FF4401333
:1016A00008A8032608924FF00008289369F0D4F99F
:1016B000D4F8EC204FF000094C4B08A842F002028D
:1016C0004B490025C4F8EC20D4F8EC2002F00202CB
:1016D0000492049AD4F8942042F00202C4F89420B0
:1016E000D4F8942022F00202C4F89420414A0968F8
:1016F0005A601A6822F47C5242F400521A601A6846
:1017000042F060021A600896CDE9248969F0A4F9D4
:101710004FF4E04308A832950893CDE91E8969F09B
:101720009BF9182308A827952C95089369F094F93C
:101730004FF4002308A808934FF400332F9369F067
:101740008BF9D4F8E0202B462B4842F00102C4F874
:10175000E020D4F8E02002F001020792022207996B
:101760004FF48071CDE9006569F0F2FE22692B46E5
:10177000224822F0FE7242F088722261D4F8E02002
:1017800042F00402C4F8E0200222D4F8E0100195EF
:1017900001F00401009606914FF40071069D69F076
:1017A000D7FE236923F07E4343F0FC43236136B028
:1017B000BDE8708323F0070343F00203D360D5F83C
:1017C000EC1706E0D5F8EC375B1AB3F57A7F3FF6F5
:1017D00014AE53689B04F5D50FE6FEE75AE672B6E1
:1017E000FEF7B0FE56E600BF0044025800840040F9
:1017F0000010005C7FBB2220000002580008025845
:1018000070B505460C26084C013E00D170BD94F918
:1018100000001BF043FA031E04DB6178EA18D17262
:10182000A278EA540434EFE73C21179038B590F8D9
:1018300034300446012B08D090F8290008B9012063
:1018400038BD002384F8293038BD006B03681A7B4B
:101850009AB994F82930002BF1D00A4D022305F1F2
:10186000200205F1400157F057FC95F82130D8438C
:1018700003F0010300F00100E4E71B6A002BE8D04D
:10188000002038BD801C012438B5044694F834305B
:10189000012B09D094F8293013B1002384F82930A2
:1018A000012038BD1B6A23B1206B03681A7B002A14
:1018B000F8D194F82930002BF2D0084D022305F11D
:1018C000200205F1400157F027FC95F8213003F084
:1018D0000102DB0784F82920E2D5D7E7801C012428
:1018E000F0B5002395B0234E0446069302200B93D7
:1018F00006F18002109313931193009206F1A00257
:1019000094F828701C4D0192226B04950D460290AC
:10191000CDE90E3301238DF80C3007938DF820307C
:101920008DF834308DF8483006F1C0030593134B21
:10193000099306F160030A933B1D10680C936AF04B
:10194000E5F99FB12A0E06F1620386F861202A0AA2
:101950009D70280C69465A701870206B57F022FC55
:10196000236B18686AF0D2F915B0F0BD06F1610377
:10197000EDE700BF801C01245D0E1090390E109021
:1019800010B594B004465022064968466FF0CEFF69
:101990006946206B57F006FC236B18686AF0B6F9AD
:1019A00014B010BD682117902DE9F8431F46036B52
:1019B00004468846186891466AF0A8F994F82830D9
:1019C000606A002B3CD0264E020E052386F8E120EB
:1019D000E236244D012FB070EB634FEA10434FEA1B
:1019E0001020337070704FF00000D8F80030AB64F6
:1019F000D9F800302B65E363286624D0022F1DD16F
:101A0000D9F80420A8651344D8F8041085F85400C8
:101A10006A660122E965E363134B85F86820EB668B
:101A2000124B94F82920A3F11401206B002A08BF5F
:101A3000194657F0B7FBA36B63B1E06BBDE8F883C1
:101A400004230B4EC5E7084B85F85470E8656866BB
:101A5000AB65E5E7236B18686AF058F9EDE700BF5E
:101A6000801C0124CC020020450E1090EC020020C6
:101A7000611D012400B583B04162019201A9049A5D
:101A80000093012382636A46FFF78EFF03B05DF87F
:101A900004FB00BF2DE9F843DDF820800F46164611
:101AA0000021202204461D466FF09EFFB8F1000F72
:101AB0000CD0D8F80030B8F80A20E3811B0C238240
:101AC000D8F804306282E3821B0C238338466CF022
:101AD0002FFCF30619D4431EB8B107EB000C01E04C
:101AE000013B12D31CF801EDBEF12E0FF8D1C01A44
:101AF00003F10109421EB944032AA8BF0322082B9F
:101B0000A8BF082390461A4606E008280246B946B0
:101B10004FF00008A8BF08224FF020333946204676
:101B2000236063606FF002FF164B04F10800424629
:101B30004946238183706FF0F9FE611EE21D11F8A2
:101B400001CFACF16103ACF1200C192B98BF81F8E7
:101B500000C09142F3D104F10A0011F8013FA3F152
:101B60006102203B192A98BF0B708142F5D11823DE
:101B700065832D0CE6722373099BA582E361BDE8A2
:101B8000F88300BF202020002DE9F04FDFF85894A3
:101B900085B0D9F86400C9F8F806002B60D00C466F
:101BA000154601F5FE7603EB020B1FE0002D64D015
:101BB000D9F82437AB4200F0C780D9F82037AB42C0
:101BC00000F0F980D9F82837D9F82C17AB424BD858
:101BD0008D42C0F07481691A204662F0DBFB01354A
:101BE00004F5007406F500765D4539D0D9F8302744
:101BF000AA42DBD8AA1AD9F84077D308396B02F089
:101C0000070802338B4202D3BA6B93420BD9394691
:101C10001846039362F08EFB039B0746002800F0F2
:101C20006E81C9F840073A79002A40F01F81D7F841
:101C300028A0BAF1000F00F05B813A6B0135204615
:101C40004FF400719B1AFA6804F5007406F50076EB
:101C500008EBC3083B4602EB4822D0475D45C5D19F
:101C6000002005B0BDE8F08F8D42B4D24FF4007271
:101C7000002120466FF0B8FEB1E74FF4007229460C
:101C800020466FF0B1FE8023CB4A84F8BE310C238E
:101C900084F8C231D9F82017D9F818379142C4F81E
:101CA000C611C4F8CA3100F30F81C44A013BC44FC6
:101CB00082FB0102C81787FB01C70A44C0EB62120E
:101CC000C0EB2730BF4F87FB02C7C2EB821C84F8F2
:101CD000C1018010A1EB0C01174420F03F0001313D
:101CE0000843D117C1EBE71184F8C0010A4484F816
:101CF000BF21B14A934200F3F380B04AB04882FB5F
:101D00000312D91780FB03701A44C1EB6212C1EBB6
:101D10002031AC4880FB0270C2EB821784F8C511F9
:101D20008910DB1B104421F03F0101331943D31705
:101D3000C3EBE01384F8C4111A4484F8C3214AF6B3
:101D40005523A4F8FE314AE74FF0FF3300274FF444
:101D5000F072201D84F8EC31394684F8ED3184F8B6
:101D6000EE3184F8EF315223237063706123A37046
:101D700084F8E7314123E37084F8E631722384F874
:101D8000E43184F8E531D9F83837C4F8E8316FF038
:101D90002BFE5523C4F8F07184F8FE316FF0550323
:101DA000C4F8F471C4F8F87184F8FC7184F8FD711A
:101DB00084F8FF3113E74FF40072002120466FF0E2
:101DC00013FE814B022203CB45F6EB0322742273F0
:101DD00023809023A273A370F82384F82C20082278
:101DE000C4F803006273C4F807106375D9F82017AC
:101DF000D9F818375B1AD9F828172362D9F82C3785
:101E00005B1A4AF6552163620023E372E37363773A
:101E1000A377E37784F82D3084F82E3084F82F30C0
:101E200084F83130694BA3613E232377012384F882
:101E30003030802384F84030654BC4F84230654B25
:101E400084F84620A4F8FE11634A03CBC4F84B1073
:101E50001988C4F847009B78A4F84F1084F85130D3
:101E600003CAC4F85200C4F85610B8E64FF4007222
:101E7000002120466FF0B8FD3B6CB8F1000F45D152
:101E800004F1200A002B00F081803B6B11225349A2
:101E90002046CDE90088FFF7FDFD3B6C1A6C002A57
:101EA00000F081801B6B504611224D49CDE900881E
:101EB000FFF7F0FD04F1400A4FF4E07871E0E91A11
:101EC000204662F067FA8AE6FF22013B84F8C121CE
:101ED0004FF6FF72A4F8BF21374A93427FF70DAF48
:101EE000FF2384F8C5314FF6FF73A4F8C33126E70A
:101EF00051464FF4007220466FF076FD6FE6231FC7
:101F0000384A43F8042F9E42FBD168E6002B7F6CD1
:101F100014BF02230123C3EB0813002F3FF45FAE6D
:101F2000013BBF6C002B01DD002FF9D1A2464FF41D
:101F30000078002F3FF453AE0AEB080303959A464E
:101F40000BE00025A8F12008CDE900E5FFF7A2FD90
:101F5000BF6CCFB1B8F11F0F16D93D7907F11C0E38
:101F6000112239683B6BAAEB0800002DE9D17A7980
:101F7000A8F120083D6942F02102CDE900E5FFF714
:101F800089FDBF6C002FE5D1039D28E6CDE90088CF
:101F900043464FF4F0780822D9F81C172046FFF783
:101FA00079FD7F6CC5E75046434611220C49CDE9C7
:101FB0000088FFF76FFD7DE7FF03FB0083200882A9
:101FC0009755454181808080C8CB17903F00FF0026
:101FD00029940E0DD4CB1790E0CB1790C0CB17905F
:101FE000C4CB1790DEADBEEF0000002430B40D4C22
:101FF000BFF34F8F0C4BC3F85C42BFF34F8FBFF35F
:102000006F8F0A4B0A4D03F13000DA792AB1597902
:1020100034F8112092B225F811200C338342F4D108
:1020200030BC70470020012400ED00E0F0070024E0
:10203000401F012400207047704700BF036882B032
:1020400023F002030360036823F0040303600368C2
:1020500023F040030360036823F020030360036858
:1020600023F010030360036823F080030360836997
:102070009B0603D5C36943F02003C36183699A07B4
:1020800001D5002383628369DB0701D401238361C7
:1020900000224260036823F0010303600192019B68
:1020A0003F2B06DC00BF019B01330193019B3F2BBB
:1020B000F8DD03684FF0010C074A43EA0C030360A4
:1020C000002381F800C04B70B2F8443863449BB2DF
:1020D000A2F8443802B07047000000242C2170B4EC
:1020E00000FB01F16B4C6318D3F848385B681A6841
:1020F000D5060CD59A69D20609D5DA692144184665
:1021000042F0100201F5066170BCDA6196E71A68C8
:1021100096071ED59A6995071BD52C2202FB004213
:1021200092F8651821B192F86418002940F0938064
:102130002C2202FB004292F8641821B192F8652823
:10214000002A40F086801A6822F0020270BC1A60F1
:1021500070471A68510722D41A68560638D59A690A
:10216000550635D52C2202FB004292F8661800294C
:102170006FD092F86248484992F864085A680A4059
:102180004649224342EA0042114359601A6822F04C
:1021900002021A601A6842F004021A6059E09A6951
:1021A0005207D9D52C2202FB004292F8661819B1C9
:1021B00092F8641800295DD12C2202FB004292F8AB
:1021C0006428002A45D11A6822F004021A6040E00F
:1021D0001A68910625D59A69920622D5D9692C22CA
:1021E00041F0200102FB00420020D961196821F072
:1021F00002011960196821F004011960196821F0C1
:1022000040011960196821F020011960196821F056
:1022100010011960196821F08001196082F86108C5
:1022200017E01A6822F002021A601A6822F004020B
:102230001A601A6822F040021A601A6822F020021E
:102240001A601A6822F010021A601A6822F08002DE
:102250001A6070BC7047D2F868184D1CC2F86858F4
:102260000978C9B2996292F864180139C9B282F842
:1022700064185DE7596AD2F86C58C9B26E1CC2F88E
:102280006C68297092F864180139C9B282F8641830
:1022900092E700BF00000024008000FC00240082C0
:1022A0002C23014610B41E4C03FB0043D3F84828EE
:1022B0005068026812062AD58269D20506D5C2691D
:1022C00042F48072C261012283F8602883699A0512
:1022D00009D5C2692C2342F4007203FB0143C26199
:1022E000012283F8602883695B0509D5C2692C2324
:1022F00042F4806203FB0143C261012283F860283B
:102300002C2303FB01F1631893F8603813B95DF8CF
:10231000044B7047034B5DF8044B19448EE600BF35
:1023200000000024600800240020B9E70020D5E662
:102330000320B5E70320D1E62DE9F8430568D5E988
:1023400004366C68F0611A7DD3F800801F2A47D9E3
:10235000203A3821376801FA02F2C8F80C20327DA1
:102360001F2A46D9203A382101FA02F2FA6072682F
:1023700000205968086010604046116841F0100163
:10238000116093F80890AA69494668F047FA367ACE
:10239000EA693846314668F041FA2B6A9A68636800
:1023A0006FF30F0313436360144B13F809009A5D36
:1023B00058F8003043F0010348F80030BB5843F0B0
:1023C0000103BB50A36843F44043A360236843F078
:1023D00001032360236843F400732360BDE8F8839E
:1023E0003821376801FA02F2C8F80820327D1F2A26
:1023F000B8D8382101FA02F2BA60B8E7E4CC1790F5
:10240000D3B20F2B21D8124B00B503F18A0E02E094
:102410000333734516D093F800C08445F8D193F880
:1024200001C08C45F4D102EB42020A48997800EBD6
:1024300082038430C3F88C1000EB820083F8841090
:102440005DF804FB00205DF804FB0020704700BF2E
:10245000B8211790CC02002010B40C4C002304F6D5
:10246000F80C01E0152B0CD003EB430201331CF8F0
:1024700002108142F6D1144494F9FA085DF8044B35
:1024800070474FF0FF305DF8044B704700000024A8
:1024900030B5124D002305F5B67C02E001331A2B4E
:1024A0001AD05CF833408442F8D10CEBC30EDC0048
:1024B0009EF804E08E45F1D102EB4202084B254420
:1024C00003EB8201843395F8714103EB8200C1F87C
:1024D0008C4081F8844030BD002030BDD82017905A
:1024E000CC020020F0B1002310B504460E4894F849
:1024F00004E000F6F80C01E0152B11D003EB4302C9
:1025000001331CF802107145F6D1831861792068F7
:1025100093F9FA28D3B20F2B02D8BDE81040B7E7E1
:10252000002010BD00207047000000244FF02C0C4C
:1025300001380C4B82B00C4A0CFB00330B49D3F82A
:1025400044318B4214BF02230123D2F8D81019431F
:10255000C2F8D810D2F8D82013400193019B02B0E2
:10256000704700BFCC020020004402580000024027
:10257000F8B501381E46134C2C2315460F4603FBB5
:102580000044114BD4F84401984214BFA120A0206C
:1025900064F016FDC5F30112A909B4F95C01C4F891
:1025A0005471C4F860615BF0C7F9B4F95C31002B79
:1025B00007DB03F01F0001225B090449824041F858
:1025C0002320F8BDCC0200200000024000E100E022
:1025D000234B5B68C3F3080310B4DBB9EFF311833B
:1025E000C3B9204B4FF0E02C5A6EDCF81800596E3E
:1025F0008A42F9D1996E8842F6D8DC6E4FF47A712E
:1026000001FB04F3181AB0FBF4F05DF8044B01FB76
:1026100002007047EFF31181102383F312884FF00B
:10262000E0229469136913F4803F0E4B03D001201C
:10263000C3F838099469586EC9B2D3F8382981F3C0
:102640001188D96E4FF47A73024403FB01F0001B2A
:102650005DF8044BB0FBF1F003FB0200704700BFD4
:1026600000ED00E0000000242DE9F04F974D89B007
:1026700095F844351BB9012009B0BDE8F08F2F68EB
:10268000DFF86C82002FD8F8646017DD2C1D002065
:102690008F49D4F8F430BFF34F8F03F59072C1F82F
:1026A0005C3220339342FAD1BFF34F8FBFF36F8F69
:1026B00001302F6804F58874B842EADB854A4FF090
:1026C0000009854BA2FB0612DFF828A207975209E2
:1026D000A3FB0213DB0803EB8303A2EB4303DAB291
:1026E00006927E4A02F2447606EB830B92F858304B
:1026F000029302F624230193029B994500F0468140
:10270000DAF8183093F8FE20002A40F03181DAF828
:102710000470D3E93D45FFF75BFF714998F83DE947
:10272000012269180390BEF1540F98F83C0902FA8F
:1027300007F204EB410104EB400301D1A8F846097C
:10274000994240F261811F88174200F056815F88EC
:10275000174200F066819F88174200F06781DF888A
:1027600008331742ECD11C1B99424FEA640440F233
:102770004B81281B452828BF452003EB400083429E
:1027800080F0468100251F46AC462946CDE9049ECF
:10279000B3F800E00EEA020E8E451CD1B3F802E059
:1027A0000EEA020E714540F02481B3F804E00EEA0F
:1027B000020E714540F01F81B3F80690083309EA14
:1027C0000209494508D1984209D9B3F800E00EEA58
:1027D000020E8E45E2D00233984200F2EF80BCF147
:1027E000110FDDE9049E40F21381DCF1150200F1C6
:1027F0000F813C49D8F85009D1F804349C4238BFC5
:10280000C1F80444039C231A002B13DB364B03440A
:102810009C4201D923460533C8F85039D1F8043415
:10282000052B00F20081002388F83C394FF0FF337C
:10283000C1F804343AB105FA02F2CCF1140C0125C6
:1028400005FA0CF51543294BC5F3C43203EB82029C
:10285000D2F83C0205F01F0203EB8202D2F83C12D0
:10286000C5F34412C5F3842503EB820203EB85050F
:1028700041EA0031D2F83C3241EA0311D5F83C324A
:1028800041EA0321154B81EA1122D3F82C3A82EA5E
:102890001212013302F00F020F2A2DD1B1F5803F41
:1028A0002AD2BEF1540F4FEA111104D1B8F84029D1
:1028B0000132A8F84029094AB1F5606FC2F82C3AF4
:1028C00000F0B680019B998128E000BF081F00201E
:1028D00000ED00E01F85EB51CDCCCCCC00300020CA
:1028E000C7FFFF7FCC02002020A10700D82017904F
:1028F000000000244C230020BEF1540F04D1B8F88E
:1029000040290132A8F84029514A4FF6FF71C2F818
:102910002C3AD2F8283A0133C2F8283A96F85830BF
:102920000698834210D0DBF8082033689B1A336086
:102930007368DBF830209B1A73600023CBF80830F3
:10294000CBF8303086F85800336801333360DBF859
:1029500008300133CBF808304FF6FF73994207D1A6
:10296000736801337360DBF830300133CBF83030FB
:10297000019B09F101095C360BF15C0B1433B9F1D1
:10298000080F0AF1200A01937FF4B6AE079F0123D6
:102990002F4A002F82F8283B7FF76DAE2D4B07EBB7
:1029A0000717002203EB071783F8FE2003F588734F
:1029B000BB42F9D1012009B0BDE8F08FA3EB070EAF
:1029C000254F33F8021C4FEA6E0E11400EF1010E36
:1029D00087FB0E97A7EBEE774FF0010E012FB8BFE4
:1029E0000127BD40BC44013F0EFA07F73D431F4697
:1029F000CEE60433F0E60633EEE602331C1B9942C2
:102A00004FEA64043FF6B5AE10B1013888F83C09CE
:102A1000BEF1540FACD1B8F842390133A8F84239AD
:102A2000A6E704339FE6053BDBB2FDE606339AE6F4
:102A300098F8013003EB430308EBC3034B445B7C82
:102A40000D2B7FF43FAF8023019A937766E700BF99
:102A5000003000200C1F0020565555552DE9F84335
:102A6000334B1A785B789A425CD1DFF8D090D9F872
:102A70000030002B2CDD002609F104052D4CB0465A
:102A8000D5F8AC30BFF34F8F03F1E002C4F86832E1
:102A900020339342FAD1BFF34F8FBFF36F8F06EB12
:102AA000061709EB071797F8033143BB99F844352C
:102AB00013B12B7F012B2CD06A69136843F00103FB
:102AC00013600136D9F8003005F58875B342D7DCBC
:102AD000FFF77EFD184BD3F82C4B002C0DDD03F5D2
:102AE000336303EBC4041968083333F8042CC86853
:102AF0009C4242EA0002CA60F5D1BDE8F88328464C
:102B0000FDF708FC0028DCD085F8FC8087F80381FD
:102B1000CCE70023284685F8FC30FDF7FBFB0028B6
:102B2000CAD1CEE76AF0BCFE00289ED1BDE8F8838A
:102B30000000002400ED00E000300020081F00200D
:102B400060B182884FF0B0414FF00043B2FA82F298
:102B5000D1F88000D3400343C1F88030704700BFF4
:102B60004FF0B042D2F88030D2F888100B4003F01A
:102B70000103C2F8883023B1024BD3F8540903682B
:102B800018477047000000244FF0B042D2F8803060
:102B9000D2F888100B4003F00203C2F8883023B14A
:102BA000024BD3F858090368184770470000002407
:102BB0004FF0B042D2F88030D2F888100B4003F0CA
:102BC0000403C2F8883023B1024BD3F85C090368D0
:102BD00018477047000000244FF0B042D2F8803010
:102BE000D2F888100B4003F00803C2F8883023B1F4
:102BF000024BD3F8600903681847704700000024AF
:102C00004FF0B042D2F88030D2F888100B4003F079
:102C10001003C2F8883023B1024BD3F8640903686B
:102C20001847704700000024F8B54FF0B043D3F8C0
:102C30008050D3F88820154005F47875C3F8885083
:102C40007DB1084F0126B5FA85F4C4F11F0407EBE6
:102C5000840306FA04F4D3F8540903689847A5439B
:102C6000F1D1F8BD00000024F8B54FF0B043D3F81F
:102C70008050D3F88820154005F47C45C3F888506F
:102C80007DB1084F0126B5FA85F4C4F11F0407EBA6
:102C9000840306FA04F4D3F8540903689847A5435B
:102CA000F1D1F8BD0000002430B1036882881B69AF
:102CB0001A4214BF01200020704700BF10B1036802
:102CC00082889A61704700BF18B1838802681B042C
:102CD0009361704770B50D4682B00446164640B108
:102CE00001680C4B0C4A0B449B0A02EB4303B3F8FC
:102CF000BC0264F065F9C5F38101C5F3411305F029
:102D00001302CDE90016A188206868F021FC02B00A
:102D100070BD00BF0000FEA7D820179000B1D9E712
:102D200070472DE9F84FDFF898832C23074603FB03
:102D30000083D3F84868002E00F08E81D3F85058F5
:102D400025B195F90630002B40F086812C2303FB3A
:102D50000783D3F8544824B194F90630002B40F08F
:102D60007B817B1CDBB215B11522EB71AA7114B10A
:102D70001622E371A2714FF02C09308D64F020F916
:102D8000214609FB07F928466AF00AFD284608EBA8
:102D9000090ABE4D9AF85A389AF85828002B0CBFE9
:102DA0004FF01E0B4FF03E0B5946FFF7B7FF204682
:102DB0009AF859285946FFF7B1FFDAF84838B4486D
:102DC00014225C6800214844DFF8F8926EF00CFE93
:102DD000236823F001032360AE4B9C4215D1D5F844
:102DE000903043F40013C5F89030D5F8903023F4B8
:102DF0000013C5F890305CF089F8A44BDB69C3F38D
:102E00000213994499F8543033E0A34B9C420AD101
:102E1000D5F8903043F48003C5F89030D5F8903061
:102E200023F48003E5E79D4B9C420AD1D5F890300E
:102E300043F40003C5F89030D5F8903023F4000334
:102E4000D7E7974B9C4240F00981D5F89C3043F07E
:102E50008003C5F89C30D5F89C3023F08003C5F87A
:102E60009C305CF053F82B6AC3F302134B4493F885
:102E7000543003F01F039FED8B7A9FED8B5AB0EE19
:102E8000084AD8402C23F7EE003A002507EE900AB6
:102E900003FB078840F2145CF8EE677AB8F85C88A8
:102EA000C7EE275A07EE908A9FED807AF8EEE77A10
:102EB000C7EE274ADFED7E7AB0EE007AE5EE877A3C
:102EC000A5EE875A25EE844A37EE856A74EEE72A26
:102ED000B8F5C87F05F10107D5BF4FF49672782287
:102EE0006423322307EE907AD8BF4FF4167E134442
:102EF000A2F13202F8EEE76AC8BF4FF4827E07EE15
:102F0000903AD4BF61464FF4FA7166EEA56AB8EE06
:102F1000E77A7144C7EE267A07EE102AB8EEC77A30
:102F200037EE447A77EEE37AFCEEE77A17EE903AE2
:102F3000C7EE267AFCEEE77A17EE900A07EE90EAE3
:102F4000B8EEE73A07EE901AF8EEE77A23EE243A65
:102F500083EE277A37EE453A32EEC77AC3EE267A09
:102F600077EEE37AFCEEE77A17EE901AC7EE267A50
:102F700077EEE37AFCEEE77A17EE902A02F1020E82
:102F80000EEB0109B0EE467A07EE909AF8EE677AFA
:102F9000A6EEA77AF4EEC74AF1EE10FA6FDC43EA28
:102FA000000E5FFA8EFEBEF10F0F6AD841EA020EE4
:102FB0001FFA8EFEBEF1FF0F63D81B05000403F05D
:102FC0007F6392B200F47F0003433A4843EA0573FB
:102FD00000EA01210B4313432268374D22F001021E
:102FE0002260226822F4F8522260002223612368C2
:102FF000114643F001032360A36823F40043A36058
:10300000A3686FF30A03A360236823F440132360CB
:10301000636823F400436360236843F00103236083
:10302000012496F82B005AF087FC96F82B305A09A9
:1030300003F01F0304FA03F345F82230002296F848
:103040002A0011465AF078FC96F82A305A0903F003
:103050001F039C4045F82240BDE8F88F174B9C4267
:103060007FF4C9AED5F8903043F00073C5F89030C6
:10307000D5F8903023F00073BBE63D4628E70131D8
:103080007EE70F2FF9D10023A6E700BF00440258C6
:10309000600800240054004000580040005C0040DC
:1030A000001C0058286B6E4E000016430024744923
:1030B0000000704200FFFF0000E100E000640040FB
:1030C00000000024D820179008B1002202E67047C3
:1030D0000D4B70B593F85860A6B10C4C002503E079
:1030E00001352034B5420DD0237F002BF8D0E068A5
:1030F00000220028F4D00135217DFFF7EBFD2034BC
:10310000B542F1D1012070BD003000204C230020D9
:1031100070B590F8723004461D09013D072D11D895
:103120001B4E03F00F0306EB4502B2F8CC1241FA36
:1031300003F2D20706D590F87520012AD0B205D047
:10314000012070BD94F875300120FAE798400138ED
:1031500008406EF057FF73190E4A93F8DC320344AF
:1031600002EBC30552F83320AB8810691840E8D051
:10317000002394F873200221284684F87530FFF765
:10318000A9FD226E136843F008031360D8E700BF5F
:10319000D82017909409002470B5154BBFF34F8FBA
:1031A000144903F58652C1F8683220339342FAD1AC
:1031B000BFF34F8FBFF36F8F0F4C40F22A430C4A7F
:1031C000B4F8945704F5E9602946FDF7A1FF0346DA
:1031D00018B1002384F8963770BDD4F848672946A3
:1031E00004F5E96001227362BDE870406AF056BFE1
:1031F0004081012400ED00E000000024014B53F861
:103200002000704750400058044B072843F8201016
:1032100003D1032908BF0021D960704750400058EE
:103220001A481B4B01681B4A41F4807130B482B0CC
:103230000160D3F8F410FF24CA2041F48031C3F8B0
:10324000F410D3F8F41001F4803101915321019D61
:10325000546250625162D3F8D030DB010ED40D4B72
:1032600000220D495A659A65DA651A665A669A66A9
:10327000DA66DA65196502B030BC7047126D064B2C
:103280009A42ECD102B030BC704700BF00480258EF
:103290000044025800400058316665422DE9F84F5D
:1032A000D0F85C710446534B00F59676FDB227F0DA
:1032B000FF09826800F1E00A103D4846D2F800801C
:1032C000A3FB05352D09294667F004FBD4F81C2122
:1032D0000023B2F5807F84F820317FD00DD8102AEA
:1032E00000F084805DD8012A46D0042A16BF6FF40E
:1032F00000616FF008013C230EE0B2F5805F71D0F1
:10330000B2F5803F3BD0B2F5806F15BF6FF400611E
:103310006FF008013C230423324608F118064046AA
:1033200056F803C001EA0C01F150D4F81CB159461B
:1033300067F086F8BBF5807F2ED024D8BBF1100F44
:103340003FD037D8BBF1010F02D0BBF1040F34D10D
:103350004FF0080C336852462946484643EA0C03AE
:1033600033604023C4F8E83067F058FA3B6843F014
:1033700010033B60BDE8F88F6FF00801CCE76FF0F9
:1033800008013C23C8E7BBF5805F22D0BBF5803F36
:103390001AD0BBF5806F10D108F11C064FF0080C55
:1033A000D8E7402A15BF6FF400616FF008013C2395
:1033B0000023B1E7BBF1400FCAD03C364FF4006C9C
:1033C000C8E74FF4006CC5E708F154064FF0080C4D
:1033D000C0E708F11C064FF4006CBBE76FF0080172
:1033E000042399E76FF40061042395E76FF400610B
:1033F00092E700BFABAAAAAA2DE9F04FDFF868A2B6
:1034000087B09AF844351BB9012007B0BDE8F08FAA
:103410008E4B8F4D5C6EFFF7DBF895F85820002A35
:1034200000F0D3818B4B05F244778B4E05F62428B0
:10343000A3FB04130AF5A96402925B09CDF804808A
:10344000A6FB0316F60806EB8606A3EB4606D5F8A0
:10345000583B0025C31A0393F3B207EB8606059386
:10346000B1460FE020460135FFF718FF019B04F538
:10347000B4745C37143309F15C090193029BAB42CD
:1034800000F0F480039A002A04DBD4F8243193423C
:1034900000F388814FF4B47303FB05A393F86836F7
:1034A000002BDFD0D4F85C11A3686C481A68CBB24B
:1034B00021F0FF01103BA0FB030369481B09C35C1B
:1034C0000B44A1895E68D368B6B223EA0103C6F152
:1034D0001606D360072EC5D95D4A0020D4F864B122
:1034E000D2F82C3A8046844604940133C2F82C3A30
:1034F0000123DBF8001021E05BF82320BCF1140F5E
:1035000088F00108A2EB010E11462EDC1EF1080224
:1035100048BF0EF11702BEF1070F4FEA221202F167
:10352000FF3E00FA02F040F383800124013394440B
:1035300004FA0EFE9E424EEA000016D39E42DBD8ED
:10354000CCF11502CCF1140E0124002A00FA02F28B
:1035500004FA0EFE09DD18F0010F06D001334EEA21
:1035600002004FF0150C9E42E8D2BCF1150F049CEE
:103570005FD13C49C0F38423C0F3441201EB8303C1
:1035800001EB8202D3F8E432D2F8E4221B0243EAD0
:10359000021300F01F02C0F3C43001EB820201EB02
:1035A0008000D2F8E4221343D0F8E42243EA023345
:1035B00083EA132282EA121202F00F020F2A38D194
:1035C000C3F30F134FF6FF72934232D0B3F5606F1F
:1035D00000F0EC80019A938197F858200598824278
:1035E00010D0D9F808103A68521A3A607A68D9F8B7
:1035F0003010521A7A600022C9F80820C9F8302029
:1036000087F858003A6801323A60D9F80820013248
:10361000C9F808204FF6FF7293427FF423AF7B680E
:1036200001337B60D9F830300133C9F8303019E705
:10363000049C074AD2F8283A0133C2F8283A002DF0
:1036400000F0AA804FF6FF73C6E700BF0000002419
:10365000003000201F85EB51CDCCCCCCABAAAAAA60
:10366000E4CC1790D8201790081F00205A481A461B
:1036700000230121C0F8583BDAF8503580F8281BA8
:103680009AF820161B6811F0020FDAF86406196A1E
:103690000CBF014341EA8001012A19623FF4B4AE34
:1036A000DAF8B8369AF888171B6811F0020FDAF8C2
:1036B000CC07196A0CBF014341EA8001022A196252
:1036C0003FF4A2AEDAF820389AF8F0181B6811F02F
:1036D000020FDAF83409196A0CBF014341EA80018C
:1036E000032A19623FF490AEDAF888399AF8581A2A
:1036F0001B6811F0020FDAF89C0A196A0CBF01432B
:1037000041EA8001042A19623FF47EAEDAF8F03A09
:103710009AF8C01B1B6811F0020FDAF8040C196A42
:103720000CBF014341EA8001052A19623FF46CAEE7
:10373000DAF8583C9AF8281D1B6811F0020FDAF8E5
:103740006C0D196A0CBF014341EA8001062A196217
:103750003FF45AAEDAF8C03D9AF8901E1B6811F09B
:10376000020FDAF8D40E196A0CBF014341EA800156
:10377000082A19627FF448AEDAF8283F9AF8F82F41
:103780001B68164912F0020F1A6AC96B14BF42EA8D
:1037900081020A431A6237E65946582210486EF0F1
:1037A000C5F84FE7002007B0BDE8F08F0D494A7813
:1037B00002EB420201EBC2022A44527C0D2A7FF442
:1037C00009AF802201998A7706E703490123C1F8EE
:1037D000582B81F8283B17E600300020082F0020E6
:1037E000D03A002000000024C36E2DE9F04F93F87A
:1037F00032300546DFF8EC8197B04FEA531903F0F9
:103800001F03046E58F8292008EB890A0079DA4072
:1038100010F0020002F00102019254D095F87220DB
:10382000003A18BF0122D000029201269E40CAF839
:103830008060BFF34F8FBFF36F8F236823F4F8735B
:103840002360A36823F00103A360CAF88061BFF37B
:103850004F8FBFF36F8F236823F001032360544B16
:103860009C4200F09081534B9C422ED0524B9C4284
:1038700000F0CE81514B9C4200F0D881504B9C42CD
:1038800000F0AE814F4B9C4200F0DE814E4B9C42DB
:1038900000F0F6814D4B9C4200F000824C4B9C4264
:1038A00000F0E0814B4B9C421CD14B4BD3F898204D
:1038B00042F08002C3F89820D3F8982022F08002CA
:1038C000C3F898200EE00290AFE7434BD3F8902066
:1038D00042F40032C3F89020D3F8902022F4003252
:1038E000C3F890202168AB68C90795F805B02A791C
:1038F00055D44FEA8B21D4F800C04FEA0B2701F4CE
:10390000805107F480673943344F0CEA07070F43AF
:1039100002F0010147EA8107384320604FEA0B308B
:10392000676800F4005027F4405738432C4F60601C
:10393000E71BA068B7FA87F720F440707F09A06002
:103940001B48BF00844200F059811A4884424BD082
:103950001948844248D000F58060844244D000F584
:103960008060844240D000F54440844200F04681AB
:10397000A0F51C40844237D000F58060844233D0EB
:1039800000F51C40844200F0398100F580608442DB
:1039900000F03481E36A23F00F033B43E362019BB1
:1039A0001BB1CAF8806148F8296017B0BDE8F08FF4
:1039B000001001400044004000480040004C00401E
:1039C000005000400014014000780040007C00409E
:1039D00000180140001C014000440258F369FFEF49
:1039E000000C005800E100E0B3480393CDE9042146
:1039F0005BF026FE0599DDE903320028CAD0002BD2
:103A0000C8D0DFF8C8C21BF0010F0CEB870CDCF844
:103A100064C3B0FBFCF000EB5300B0FBF3F080B2EA
:103A2000E060E36A23F00F0343EA0703E3622B6ECF
:103A300007D019B1586840F480305860920700F1FF
:103A4000B08095F874201AB15A6842F400425A6066
:103A5000A3681BF0080F43F48053A360236823F08E
:103A600000532360636823F490436360A36823F0EA
:103A70002A03A36003D0A36843F00803A36023686C
:103A800043F001032360002944D0EF6B002F00F0C6
:103A90008D805FFA87FB894B27F0FF000022ABF196
:103AA000100B0390A3FB0B3B002308934FEA1B1B57
:103AB0000A935946CDE91133CDE913336B6C0F935B
:103AC0006B690793EB680E9304F1240306934FF49C
:103AD00080630B934FF4807309934FF480331093FA
:103AE0000023CDE90C2366F0F5FE06AA039859469B
:103AF00066F094FE3B68039843F001033B60704B13
:103B0000A26813F80B3042F040020344A2605B68E5
:103B10009BB26B65029B002B3FF441AF2F6C002FD3
:103B200055D0AB6CFDB227F0FF0B0F93103D634BEC
:103B30005846A3FB0535002307932D090E9329460C
:103B4000CDE90933CDE90C33CDE91133CDE9133398
:103B50004023089304F1280306934FF480630B93EA
:103B60004FF48033109366F0B5FE2946584606AAF6
:103B700066F054FE3B6843F010033B60236843F05B
:103B8000400323600BE74F4BD3F8982042F010021C
:103B9000C3F89820D3F8982022F01002C3F8982098
:103BA000A0E65A6842F400325A604AE7236843F4B8
:103BB00080732360A36843F00103A360236843F08C
:103BC00020032360236843F010032360A2E72368E7
:103BD00043F080032360236843F040032360DEE664
:103BE000384BD3F8902042F48012C3F89020D3F8D9
:103BF000902022F48012C3F8902073E63248039399
:103C0000CDE904215BF01CFD0599DDE90332F4E602
:103C10002C4BD3F8902042F48022C3F89020D3F8A4
:103C2000902022F48022C3F890205BE6254BD3F845
:103C3000902042F40022C3F89020D3F8902022F480
:103C40000022C3F890204DE61E4BD3F8982042F096
:103C50002002C3F89820D3F8982022F02002C3F85D
:103C600098203FE6174BD3F8982042F04002C3F863
:103C70009820D3F8982022F04002C3F8982031E62B
:103C8000104BD3F8902042F08042C3F89020D3F834
:103C9000902022F08042C3F8902023E6094BD3F80D
:103CA000902042F00042C3F89020D3F8902022F0F8
:103CB0000042C3F8902015E608000007ABAAAAAAA4
:103CC000E4CC17900044025808030007D82017904E
:103CD00038B50409013C072C1AD80F4D00F00F032A
:103CE00005EB4402B2F8CC0240FA03F212F00102F2
:103CF00010D00122254402FA03F3013B18406EF074
:103D000081F995F8DC32054A034402EBC30038BD63
:103D1000002038BD104638BDD820179094090024E3
:103D20002DE9F047984D05EB0013D3F8644D002CB6
:103D300000F08F80B3F86E7D06464FEA00193846D2
:103D400063F03EF901227B0907F01F07023BBA40EE
:103D5000082B0FD8DFE813F0BF00C700CF00D70053
:103D6000DF000900E700EF00B7008849CB6F23EAC6
:103D70000203CB6705EB0903013693F8680DF6B231
:103D8000FFF7A6FF074610B11223C671837105EB3A
:103D9000090393F8690DFFF79BFF824610B11323C7
:103DA000C671837105EB090393F86A0DFFF790FF65
:103DB000804610B11423C67183714D4450462E21A4
:103DC00095F86C2DFEF7AAFF95F86D2D40460E2153
:103DD000FEF7A4FF95F86B2D2E213846FEF79EFFC7
:103DE00023686B4A23F001039442236033D0694B6C
:103DF0009C423ED1654BD3F8902042F48042C3F8F8
:103E00009020D3F8902022F48042C3F89020E368F9
:103E100043F00043E360A36823F4F073A3602368D6
:103E2000DA0716D4A1685C4A5C4B0A401343A360CE
:103E3000E368DB0042D5E268594B134043F0E86386
:103E4000E360236823F400632360236D23F0010300
:103E50002365BDE8F0874D4BD3F8982042F480529B
:103E6000C3F89820D3F8982022F48052C3F8982001
:103E7000CDE74C4B9C4213D04B4B9C4263D04B4BF9
:103E80009C426ED1414BD3F8982042F48012C3F883
:103E90009820D3F8982022F48012C3F89820B6E72F
:103EA0003A4BD3F8902042F40042C3F89020D3F864
:103EB000902022F40042C3F89020A8E7236843F43E
:103EC00080532360B7E73149D1F89C3023EA0203DD
:103ED000C1F89C304EE72D49D1F8983023EA02030F
:103EE000C1F8983046E72949D1F8903023EA020317
:103EF000C1F890303EE72549D1F8943023EA020317
:103F0000C1F8943036E72149D1F8803023EA020322
:103F1000C1F880302EE71D49D1F8843023EA02032E
:103F2000C1F8843026E71949D1F88C3023EA02031E
:103F3000C1F88C301EE71549D1F8883023EA020316
:103F4000C1F8883016E7114BD3F8982042F400529C
:103F5000C3F89820D3F8982022F40052C3F8982090
:103F600055E7134B9C427FF452AF03F50C33D3F863
:103F70009C2042F02002C3F89C20D3F89C2022F021
:103F80002002C3F89C2042E70000002400440258AD
:103F90000030014000380040E0FFBF8F07000020E4
:103FA000FFFF39D8003C0040003401400050014080
:103FB0000014005808B51D20FFF78AFE10B190F9D3
:103FC000063053B11E20FFF783FE10B190F9063082
:103FD00003B108BD5523C38008BD5523C380F1E755
:103FE000F8B50E4B93F858709FB10D4DC7F1090706
:103FF0000924013C0FD0AE683079FFF769FE95F8CF
:10400000DC10F27908B1FEF765FEA74205F5B4753C
:10401000EFD10120F8BDA368FFDE00BF0030002013
:1040200050240020F0B4046EEFF31183502282F389
:1040300012880279920702D590F872203AB90122CB
:1040400080F86420DBB283F31188F0BC7047026C07
:10405000116801F001010029F4D1466A856AAE4277
:10406000EDD0856A476A866AB74220D8866A81623F
:104070000169891B1FFA81FC8169DBB22944002593
:1040800080F8645040202062D16051686FF30F01C6
:1040900041EA0C015160116841F001011160A26810
:1040A00042F08002A26083F31188F0BC7047416A3D
:1040B000866AA1EB060C416A1FFA8CFC8162DBE781
:1040C000027D0346C0691F2A1B6805D9203A2021BA
:1040D00001FA02F2DA60A5E7202101FA02F29A6001
:1040E000A0E700BF1648174AC168174B10B44FF637
:1040F000FF0483B02140154C0A43C260D3F8D010AE
:10410000D3F8DC20C4F8C41D42F00052C3F8DC2010
:10411000D3F8DC2002F000520092009AD3F8DC20A1
:1041200042F08042C3F8DC20D3F8DC3003F0804357
:104130000193019B03B05DF8044BFDF72BB900BF61
:1041400000ED00E00005FA050044025800000024DC
:1041500008B51D480023C0F88430BFF34F8F436972
:1041600023F480334361BFF34F8FD0F8803043F6A0
:10417000E074C3F34E3CC3F3C90E4FEA4C1C0CEA87
:104180000401734641EA8372013BC0F874225A1C51
:10419000F8D1ACF1200C1CF1200FF0D1BFF34F8F00
:1041A000BFF36F8FBFF34F8FBFF36F8F4369002251
:1041B00023F400334361C0F85022BFF34F8FBFF3A5
:1041C0006F8F72B6FCF7BEF900ED00E001284FF0EA
:1041D00007000CBF0521012108B5FFF715F872B6DD
:1041E000FCF7B0F903689B0AA3F58013522B56D84D
:1041F00070B5384C14F803C0BCF10D0F4ED843799C
:104200004FF04C0E344802249E080EFB0C0E0CEBB3
:104210008C03B440DEF8C85D0CEB4303B646334470
:10422000EE68002941D0344300EB8306C6F81C1425
:10423000C6F82C24EC60EFF31185502383F3128829
:104240002C2202FB0C01D1F818344BB31A1DC1F813
:104250003C34224B0CEB8C01214C0CEB41018900CE
:104260000C4410310B4453F8041F09B111600A1DAE
:10427000A342F8D10023EDB2136085F311882C23FB
:1042800003FB0C03D3F83C34CBB14C2303FB0C03EE
:10429000D3F8C82DD36843F00103D36070BD7047D5
:1042A0000E4B02FB0C322432D4E726EA0404EC6005
:1042B00000EB8304C4F81C14C4F82C24BBE74C2383
:1042C00003FB0C00D0F8C82DD36823F00103D360A2
:1042D00070BD00BFD82017900000002418040024EF
:1042E0003804002403689B0AA3F58013522B00D9DD
:1042F00070470E4AD35C0D2BFAD84FF04C0C10B41B
:104300000B4C42790CFB03400223D0F8C80DDA4075
:104310009340C26829B922EA03035DF8044BC360E5
:10432000704713435DF8044BC3607047D820179063
:104330000000002403689B0AA3F58013522B10D8B9
:10434000084AD25C0D2A0CD84079022306494FF066
:104350004C0CD8400CFB02128340D2F8C82DDB4332
:1043600013617047D82017900000002401490248CB
:10437000FCF76CBE1804002400000140014902480B
:10438000FCF764BE180400240000014002494FF00D
:104390008040FCF75BBE00BF440400240149024892
:1043A000FCF754BE70040024000400400149024898
:1043B000FCF74CBE9C040024000800400149024860
:1043C000FCF744BEC8040024000C0040F8B5164DAC
:1043D000164E2A69EB681A404FF00040B2FA82F399
:1043E000EAB120FA03F3012A6FEA030302EA0301A8
:1043F0002B610A46F2D1D6F81C758FB1013F00231C
:10440000BFB2C6F81C35D6F8184534B1236820462B
:10441000394698476468002CF8D10022DCE7F8BDE3
:10442000EF6ABFB2EFE700BF0010004000000024B9
:1044300001490248FCF70ABE4C0500240004014073
:1044400010B5064C064804F24C51FCF7FFFD04F28F
:10445000A4510448BDE81040FCF7F8BD000000245A
:1044600000040140001C004001490248FCF7EEBD79
:10447000780500240018004001490248FCF7E6BD19
:10448000D00500240020004001490248FCF7DEBDB1
:10449000FC0500240040014001490248FCF7D6BD5C
:1044A000280600240044014001490248FCF7CEBD23
:1044B00054060024004801402DE9F0414FF42572D4
:1044C0008EB0002173486DF08FFA734B734D4FF02F
:1044D0000008D3F8F02040F27D27A5F56D7605F6AB
:1044E000F41442F00102C3F8F020D3F8F02002F0F7
:1044F00001020092009AD3F8E82042F00102C3F8CA
:10450000E820D3F8E82002F001020192019AD3F8E2
:10451000E82042F00202C3F8E820D3F8E82002F0D5
:1045200002020292029AD3F8E82042F00402C3F891
:10453000E820D3F8E82002F004020392039AD3F8AB
:10454000E82042F00802C3F8E820D3F8E82002F09F
:1045500008020492049AD3F8E82042F01002C3F84B
:10456000E820D3F8E82002F010020592059AD3F86B
:10457000E82042F02002C3F8E820D3F8E82002F057
:1045800020020692069AD3F8F02042F00202C3F805
:10459000F020D3F8F02002F002020792079AD3F835
:1045A000E82042F04002C3F8E820D3F8E82002F007
:1045B00040020892089AD3F8E82042F08002C3F83B
:1045C000E820D3F8E82002F080020992099AD3F893
:1045D000E82042F48072C3F8E820D3F8E82002F41F
:1045E00080720A920A9AD3F8F02042F48032C3F81B
:1045F000F020D3F8F02002F480320B920B9AD3F81B
:10460000F02042F40032C3F8F020D3F8F02002F496
:1046100000320C920C9AD3F8F02042F48022C3F8B6
:10462000F020D3F8F03003F480230D930D9B55F860
:104630002810002354F83320914226D001330E2B4A
:10464000F8D1002008F1070862F0BAFCB845EED1B5
:104650004FF0000840F27D2755F82810002354F849
:10466000332091420CD001330E2BF8D1002008F1F9
:10467000070862F0A5FCB845EED10EB0BDE8F081A8
:1046800006EBC303B3F8AC0DF1E706EBC303B3F8D5
:10469000AC0DD7E718040024004402588C2417906E
:1046A0001F4B984210B50ED003F5806398420AD094
:1046B0001C4A03F58043984218BF904203D003F58B
:1046C000806398421BD15AF021FC174B1749DC69D3
:1046D000DA69C4F3022CC2F3022201EB0C0393F853
:1046E000543003F01F03D8400F4B11491B69C3F32B
:1046F000C03342EAC303CB5C03FB00F010BD5AF0A9
:1047000005FC094B0949DC69DA69C4F30214C2F3F8
:1047100002120B1993F8543003F01F03D840E3E75B
:10472000000001400040014000440258D82017908A
:10473000C0CC17902DE9F0470468A30AA3F58013B5
:10474000522B6FD815466E4AD65C0D2E6AD84C2770
:10475000DFF8C481013907FB06FA89B208EB0A09C0
:10476000C9F8D41D0068FFF79BFF08F6C853B0FBDB
:10477000F5F0013807FB0637C9F8CC0D391DD9F81B
:10478000C80DA04200F0B7800AF1080A0022C9F85B
:10479000C84D5344C9F8D02DC3E9022299F8053E0B
:1047A00003F0FF02002B00F0A3804C2502232046DB
:1047B00005FB068585F8053E5AF0E4FD0123B4F1BA
:1047C000804F85F8103E85F8063E85F8073E85F84F
:1047D000083E85F8093E85F80A3E85F80B3E85F8C7
:1047E0000C3E85F80D3E85F80E3E85F80F3E85F8A7
:1047F000053E444BA4EB0303B3FA83F34FEA531390
:1048000056D0002B54D1404A94420DD002F580621C
:10481000944209D002F5806294422BD002F578428E
:10482000944227D0BDE8F0874C2303FB068393F81E
:10483000042E012AF6D00221344A83F8051EA0680E
:104840000240A260012283F8052E83F8051E6268EB
:10485000A16822F0700221F080014C2362600022E6
:10486000A160012103FB068383F8051E83F8042E53
:10487000BDE8F0874C2202FB068292F8041E012953
:10488000D0D0022182F8051E2049A06801402048AE
:10489000A1600121201A82F8051E0021B0FA80F0E3
:1048A00082F8041E1B4A4009944213D090B9B9E71C
:1048B0004C2202FB068292F8041E0129B2D002218A
:1048C00082F8051E1149A06801400020A160012165
:1048D00082F8051E4C22022102FB068282F8051E88
:1048E0006268A1680BB90028B3D022F47002B0E767
:1048F00089F8042E59E7BDE8F0475AF043BD00BFE0
:10490000D820179000000140000400408800CEFF2E
:1049100000040140000C00400000002403689B0AD2
:10492000A3F58013522B07D82DE9F0412F4DEE5CF3
:104930000D2E02D9BDE8F08170470446FFF7FAFE5C
:104940004C222B4B02FB063393F8052E012A12D082
:1049500020680023274951F8332090421DD00133AD
:104960000E2BF8D101220020114658F0E5FF224B12
:1049700001221A60DEE70221D3F8C82D83F8051E54
:104980001E4B91680B40062BE2D0B3F5803FDFD081
:10499000136843F001031360DAE705EBC305012652
:1049A000154F95F8AE4D3246314604F01F052046AE
:1049B00058F0C2FF1B2C4FEA541806FA05F547F8C9
:1049C00028500AD02E2CB5D1324631462C2058F032
:1049D000B3FF4FF480537B60ACE732463146192079
:1049E00058F0AAFF4FF000733B60A3E7D820179060
:1049F00000000024802E179000E100E00700010075
:104A00002DE9F04F002393B0DFF8F8920193B34BF8
:104A1000B34DA3F6F86AB34EB34C276899F8562104
:104A2000BB0AA3F58013522B00F2CD801AF8033095
:104A30000D2B00F2C880012A16F903B000F00281A4
:104A4000022A02D1BBF1080F3CD14FF000084146C9
:104A5000584610F067FF10F0EFFF90F900C0BCF16E
:104A6000000F18BFBCF1540F14BF4FF0010C4FF0F2
:104A7000000C40F0DD8008F104081FFA88F8B8F156
:104A8000100FE4D1019B002B00F0A880944A0BE0AA
:104A90001AF803300D2B0ED8F3565B450ED002F5F5
:104AA0008872AA4200F0968091680B689B0AA3F571
:104AB0008013522BECD900235B45F0D14B796179FF
:104AC0009942ECD11C34854B9C42A6D1019B05F543
:104AD00088750133042B01939ED1844B4FF0010A5A
:104AE000DFF824B293F8583001330393039B534506
:104AF00066D099F86A31DBF80C6004939BF81030AB
:104B00000193002E5CD07A4A336815687948B288E0
:104B1000002D184402924FEA902040F3A080704A82
:104B2000002405E0013402F58872AC4200F0948064
:104B300011688142F6D104EB0414694A029F02EB2A
:104B40000414019ACBF80C608BF81020029ACBF871
:104B50001840B2FA82FC0322CCF11F056800CBF8A2
:104B60000450B27186F807A002FA00F6A16C012287
:104B7000D4F854E0314302FA00F002FA05F5A164DA
:104B8000216D0143D4F8AC002165594991F8446581
:104B9000A9B2002E00F0488145EA0E0565659F61C7
:104BA000FBF7FEFB0AF1010A2046FBF7B3FB0BF112
:104BB000200B40F20113BAF1090F2BF8043C95D1F8
:104BC00013B0BDE8F08F013A012A7FF67BAF4FF0BA
:104BD000000B3AE7BCF1000F7FF474AFA06800222D
:104BE000454B04E001320C33102A00F06C83596805
:104BF0008842F7D152B261793846FDF749FC3F4A05
:104C00000023416804E0102B02F12C023FF45AAF5C
:104C1000576818460133B942F5D12C23384A03FBB3
:104C2000002090F96431002B7FF44CAFAC604DE76D
:104C3000019B002B7FF42AAF1C34284B9C427FF44D
:104C4000ECAE43E7BBF1010F3FF4FFAE1C34234B46
:104C50009C427FF4E2AE39E7042C00F04E822449F6
:104C600005EB051201EB021229010591D1680791AC
:104C7000002900F0FB82506001304FF054011E4FBC
:104C8000C4B29E4682F8101182F811416A1C18497C
:104C90000A60079A10685179D2F808C0002204E02F
:104CA00001320C37102A00F00E837B689C45F7D147
:104CB00052B2CDF818E0FDF7EBFB059BDFF83C8026
:104CC0005A190B4BD0E9017103EB0212069B4046C7
:104CD0009C46C2E9067100211DE000BFD02F17904D
:104CE0000C1F0020D4CC1790F02E1790003000201D
:104CF000081F00200000FEA7500300201004002021
:104D0000CC020020F81000244C230020102900F1D0
:104D10002C003FF455AF43680A4601319F42F5D15C
:104D20002C218448634601FB020292F96411002998
:104D30007FF446AF059982F865414C197E48DFF84B
:104D40001CC244F31B010CF5607E00FB01F17B48A3
:104D500000EB04108360C1EBC10301EBC1010CEB5C
:104D600043130EEB4111C0F8B0305423C0F8F810D3
:104D700082F864313323C0F8B4308C23C0F8FC309F
:104D8000079B1868230108936D4B069003EB0414EE
:104D9000FFF786FC049B062B00F0B581072B6949C1
:104DA000694B6A4A0CBF4D211A46694B1CBF0B4622
:104DB0004FF49B71C9F86C110599B0FBF3F3B0FB8C
:104DC000F2F2013B5D482944013A9BB200EB01112C
:104DD000A1F8B820A1F870302366089B03F15801B0
:104DE000031D069819440023A4F858306366E36550
:104DF00065F0A4FC069A136843F080031360079BD8
:104E00005B791A4604930C2A1BD8DFE812F0F701ED
:104E10001A001A001A00D5011A001A001A00B3016C
:104E20001A001A001A009001CCF12F0C3F0402FA6C
:104E30000CF242EA0E02626532469F61FBF7B0FA5D
:104E4000B0E6059B4FF0020C3C4A2B44069802EB5F
:104E5000031360220A924FF480721969036810925A
:104E6000012223F0010309910B920A22036000231F
:104E7000CDE90D2C0AAA0C930F93119365F0E0FA7B
:104E800009990023B1F5807F00F0158240F23F813F
:104E9000B1F5805F00F00B82B1F5803F00F0028237
:104EA000B1F5806F15BF4FF4006208223C23042344
:104EB000069901F11800C1580A43C250079B18799E
:104EC000002840F0C181069A136843F00103136083
:104ED000002304E0102B08F12C0800F0B181D8F871
:104EE0000420194601339742F4D107932C22114B29
:104EF00002FB0132D2F84401164A904214BFA120AD
:104F0000A02062F05DF80499079B0C2900F29681BD
:104F1000114A02EB4102B2F8F81E059A07482A44EA
:104F2000DFF83CE0DDF818C000EB021200209182AF
:104F30001FE000BFCC020020F1F0F0F0081F0020BD
:104F40000C1F0020D0DD06004495080010552200FB
:104F500040771B0000000240D820179040790124C0
:104F6000303B0020944500F0A0810130042800F07F
:104F7000AD815EF83020002AF4D1BF4A1746D2F83E
:104F80002C2B0132C7F82C2B07EBC002069FC00068
:104F9000C2F8307B0EEB0007902218462346B7F884
:104FA00004C041EA0C01B9800027B449FDF7E0FADA
:104FB000059BB34A4FF0400C2B444FF4403EB148A0
:104FC00002EB03134FF480529D690793296841F067
:104FD00010012960296841F014012960C4E91F7794
:104FE000C4E92777C4E92977D969C4F878C04FF4B0
:104FF000806CC4F894100491E9B2C4F898E01039B8
:10500000C4F884C025F0FF0CA0FB0101D3F8B40064
:10501000CDF814C0C4F890000909D3F80880C4F88A
:10502000882008F118029848069108F110082267B4
:10503000089A70320244D3F8B00060674FF48040A1
:10504000C4F88C00604665F0E9FBD5F800E0089AEA
:10505000C4F820E0D5F814E0B8328B4BC4F824E053
:10506000D5F804E01A44049BC4F828E0D5F808E019
:10507000C4F82CE0D5F80CE0C4F8DC304FF48063C1
:10508000C4F8C870C4F8CC30079BC4F830E0C4E959
:105090003077C4E93977C4E93B77DDE905C14FF4DE
:1050A000003760464FF4006CC4F8E070D3F8FC7031
:1050B000C4F8B880C4F8D8704FF48047C4F8D0C0A2
:1050C000D3F8F830C4F8D470C4F8BC3065F0A6FB4F
:1050D0002B68B78863636B69A3636B68E363AB6832
:1050E0002364EB6863642B6843F010032B602B6828
:1050F00043F014032B60336823E5032389F86B31F5
:1051000013B0BDE8F08F9B21604A614B52E6102935
:1051100000F0D68000F2BE80012900F0CF80042983
:1051200015BF4FF4006208223C230023C0E6069816
:10513000059A036852492A4423F0010301EB021245
:105140004FF4805111610222036000230C930F93EE
:10515000119360230A934FF48073109301230B93F0
:105160000A23CDE90D320AAA65F06AF94FF400620C
:1051700004239DE606984FF0600C059A4FF0020E4E
:1051800003683F492A4423F0010301EB02124FF464
:10519000807111610AAA0360002310910C930F9390
:1051A00011930123CDE90AC30A23CDE90D3E65F031
:1051B00047F9082204237BE6059A31492A440698D8
:1051C00001EB0212102103681161602223F0010338
:1051D0000A924FF4807203600023109201220C9314
:1051E0000F93119302230B920A22CDE90D230AAAF1
:1051F00065F026F900234FF4006259E6059A0698F7
:105200001F492A44036801EB0212012123F0010324
:1052100011616022036000230A924FF480720C93A4
:105220000F931193022310920A220B91CDE90D23C3
:105230000AAA65F005F90023082239E600216CE688
:105240004FF0FF31002350E6FEF742FD099038B1E0
:10525000079B0221DA79FDF73DFD5422099BDA8094
:10526000069A536C43F4004353642CE6022389F8F6
:105270006B3113B0BDE8F08F003000203101000029
:10528000081F0020ABAAAAAA0C1F0020882A110020
:10529000A0BB0D00402915BF4FF4006208223C233B
:1052A000002305E608223C2302E6C00072E64FF424
:1052B00000620423FCE508220423F9E50822F7E54F
:1052C0004FF40062F4E500235B68FFDE00239B8857
:1052D000FFDE00BF2DE9F04FAF4D8FB095F8708124
:1052E000B8F1000F03D100200FB0BDE8F08F00220D
:1052F0002F21404610F0F6FB06460028F3D0036845
:1053000090F80590A54F0193A7F89497FDF7EAF858
:105310000028E8D0D0E901430293002CE3D0DFF865
:10532000B4B20022594601E0102ADCD04B68944602
:105330002C3101329C42F7D12C22994B02FB0C3CC0
:105340009CF964A1BAF1000FCDD1019B2F22184620
:10535000ACF86421C7F84837FFF7A2F9914A9042A8
:1053600080F0F680012303930198FFF799F9039BDE
:105370008D49C7F84CA7B0FBF3F2120A8B48A1FB8A
:1053800002210022C7F85827C7F850270A0909093F
:10539000A0FB0202C7F854175208A5F87421520066
:1053A000A5F8722197F8852702F0FF01002A00F086
:1053B000E180022201987E4987F8852759F0E2FFB3
:1053C0000122404687F8902787F8862787F88727A5
:1053D00087F8882787F8892787F88A2787F88B270F
:1053E00087F88C2787F88D2787F88E2787F88F27EF
:1053F00087F88527FEF76CFCC5F8780128B12F21C6
:10540000C1804E21F279FDF765FC6A4A0021029BBA
:105410004FF4806CC5F88811B9F10C0FC5F89811DC
:10542000C5F8A011C5E95F43C5E96A11D2F8D800F3
:1054300040F00100C2F8D800D2F8D80000F0010016
:1054400004900498D2F8D80040F00200C2F8D800C6
:10545000D2F8D82002F002020592059A4FF04002DD
:10546000C5F884214FF48052C5E963C24FF48042ED
:10547000C5F894214FF40032C5F89C214FF0030287
:10548000C5F8A42179D84C4A02EB4902B2F8148F2E
:10549000C2464A4A08F108084949C5F8B42107EB51
:1054A0008802C2F848175A46002101E0102969D045
:1054B000536808462C3201319C42F7D1384B2C22DC
:1054C00002FB0032D2F844013E4A904214BFA120B0
:1054D000A02061F075FD002001E0102850D0DBF81D
:1054E000043001300BF12C0B9C42F6D107EB8807FE
:1054F000534660223449FDF73BF8D7F8480758F087
:10550000D3FD00287FF4EFAEB479002760260C901D
:1055100063004A4606A9294803F002030893E30002
:10552000CDE9066703F00803002600270993CDE9BB
:105530000A6760F041FC00287FF4D5AEA307494616
:105540001E4822D55AF032F8B0FA80F04009CBE676
:105550000198FFF7A5F81D4A1D490244A1FB021A54
:105560004FEA9A5A0AF1FF3A1FFA8AFA0AF101033E
:105570000393F9E687F884171BE78A46884688E78D
:105580000020B3E74FF0FF3098E759F06FFEB0FA14
:1055900080F04009A8E600BFF810002400000024B5
:1055A000CC020020006CDC02598B4F01ABAAAAAAE6
:1055B0004C07002400440258D820179048070024C4
:1055C0007412002400000240ED02000000366E015B
:1055D000819F5E1610040020F8B5134C94F8E6374E
:1055E00003F0FF05002BF9D1104B012693F8F4319D
:1055F00084F8E66703B9F8BD0D4AB4F8E477138E72
:1056000034320C483946FBF783FD034610B184F869
:10561000E657F8BDD4F898473246394605486362E4
:10562000BDE8F84068F03ABD00000024F8100024FE
:10563000002001249807002437B590F85F3804460D
:10564000032B2FD10023204D8DF807309DF8073014
:1056500094F860289A4201D803B030BD9DF8073015
:1056600005EBC30393F8FC318BB181F0010383B1E7
:105670009DF8073005EBC303D3F8F801FDF71EFBD7
:105680009DF807300133DBB28DF80730DEE70B46BB
:10569000EDE79DF8073005EBC303D3F8F801FDF7FC
:1056A00013FBEDE7D0E910039B7903F00103994266
:1056B00004D003B0BDE83040FDF700BB03B0BDE847
:1056C0003040FDF701BB00BFF810002438B5044698
:1056D00000790D4650B1FEF7FBFA08B10323C380F1
:1056E000E2792946BDE83840FDF718BB38BD10B552
:1056F00004462221FFF7EAFF2046FEF71BFE204664
:105700000121BDE81040FEF7EDBD10B504460121B2
:10571000FFF7DCFF00212046BDE81040FEF7E2BDA8
:1057200038B510F8133CA0F6640433BB94F8502845
:10573000002A33D1616AA36A99421ED0A36AA16983
:10574000581CA062CB5CA06A2169DBB2884200D3FE
:10575000A2625B0043F40073A4F854380A2384F86F
:105760005238012384F8503894F85F38012B01D067
:10577000042B02D1606CFFF7C8FF94F84C38002B63
:105780006DD194F84D380133DBB2092B84F84D38D4
:1057900025D12046BDE83840FAF7ECBE94F95258BE
:1057A0006DB1B4F85418013D20464B0801F00101D9
:1057B000A4F85438FFF740FF84F85258DDE7626AD6
:1057C000A36A84F850589A42D7D194F85F38012BD5
:1057D00001D0042BD1D1606CFFF789FFCDE70A2BF4
:1057E0003DD194F84F382BB9B4F8563843F0010343
:1057F000A4F856382379D9070AD5B4F85608820593
:1058000001D4C30718D4B4F85C380133A4F85C3869
:105810000122002384F84C2894F84F2884F84D384E
:10582000012A1CD16179606C84F84F3801F00101C4
:10583000BDE838405FF0FCBFE36AC0F3470013B136
:10584000216B9847E4E7E3696269D054E369E26851
:105850000133B3FBF2F102FB1133E361D8E738BD4A
:105860002DE9F84310F8133CA0F664047BB1B4F8BA
:10587000583801339BB2082BA4F858381BD90021A3
:10588000606C84F85118A4F858185FF0D1FF394FB4
:1058900097F83882B8F1000F03D101212046FFF7B5
:1058A000CBFE94F850385BBB626AA36A9A4204D17B
:1058B000002387F83832BDE8F883B8F1020F12D818
:1058C00008F1010814BFFF237F2387F83882A4F86A
:1058D00054380823606C84F85238012384F8503817
:1058E000BDE8F84311E7A36AA269591CA162D35C21
:1058F000A16A2269DBB29142E9D30022A262E6E703
:1059000094F952685EB3B4F8549897F8395219F084
:1059100001010BD0012D01D8012103E0AB1E012BA9
:1059200009D800212046FFF787FE04E015F0FD03AB
:10593000F2D0012BF6D00135EDB2032D87F83952A4
:10594000B9D9013E4FEA5909002376B2A4F8549818
:1059500087F8393284F85268002EA5D0ABE7626A26
:10596000A36A9A42A7D1606C84F85068BDE8F843F6
:10597000BDE600BFF81000242DE9F04FA9B0BFF339
:105980005F8FAA4C0021626A0B46894622F480325E
:1059900062620A46C4F89410C4F898300133C4F81F
:1059A0009C20112BC4F8A020F6D10523C4F8943014
:1059B000636A43F480336362BFF34F8FBFF36F8F2B
:1059C0009B4801269B4A9C49121A9C4F6BF0AEFFE4
:1059D0009B489C4A9C49121A6BF0A8FFD4F8883067
:1059E0009A4A43F470039A49C4F888303E60C7F875
:1059F00010903B6843F080033B603B6833433B605F
:105A00003B6843F480333B603B6843F480533B6026
:105A1000C7F81890C7F81C90C7F82090C7F82890CE
:105A2000C7F82C90C7F83090C7F83490C7F8389072
:105A3000C7F83C90C7F84090C7F844903B6823F4FF
:105A400080233B60834BC7F86090C3F80861824BAA
:105A5000A2608A1A184681496BF068FF4FF6FF036F
:105A6000A060E2681A407E4B1343E36059F02CFAC1
:105A7000BA69BB69C2F303227A4B7B4F134493F894
:105A8000543003F01F0320FA03F30F207B6057F01C
:105A90008FFFFBF7A7FC59F017FA744A78600021D2
:105AA0007348121A6BF0A0FF7248734A7349121AB6
:105AB0006BF03CFFBFF35F8F636A07F581674FF0C0
:105AC000000823F480336362C4F89490574C019526
:105AD00024E000294ED03A687B7A103717F8069CEC
