:0200000490105A
:1000000000F00020FD8D1690998E1690C941119038
:10001000998E1690998E1690998E16900000000079
:10002000000000000000000000000000998E169003
:10003000998E169000000000998E169051351190FF
:10004000998E1690998E1690998E1690998E16907C
:10005000998E1690998E1690892210909122109068
:1000600099221090A1221090A92210903907000027
:100070004D070000610700007507000089070000B8
:100080009D070000B1070000998E1690998E16907A
:10009000998E1690998E1690998E1690B122109086
:1000A000998E1690C1501090998E1690B150109064
:1000B000D1501090E1501090F150109035191090DF
:1000C00029191090691910905D191090998E169049
:1000D000998E16906D100000C111000015130000DC
:1000E000B9221090998E169000000000BD5110901A
:1000F00095511090CD51109085511090C50700007A
:10010000998E16901546109001511090998E169068
:1001100069140000BD15000011511090F5D0159024
:10012000D9070000ED0700000108000015080000D5
:1001300029080000998E1690998E1690998E169027
:1001400000000000000000000000000000000000AF
:100150003D0800005108000065080000111700006C
:10016000998E1690998E1690998E1690998E16905B
:10017000998E169055BF1590998E1690998E16905F
:10018000998E1690998E169065180000B919000086
:10019000998E1690998E1690998E1690998E16902B
:1001A000998E1690998E1690998E169000000000E8
:1001B000998E1690998E1690998E1690998E16900B
:1001C000998E1690998E1690000000000000000095
:1001D0000000000000000000998E16900000000052
:1001E000000000000000000000000000000000000F
:1001F0000000000000000000998E1690998E169065
:10020000998E1690998E169000000000998E169087
:10021000DD511090ED511090FD511090998E169077
:10022000998E169000000000B54D000000000000FF
:1002300019461090998E169000000000998E169025
:10024000998E1690998E1690998E1690998E16907A
:10025000998E1690998E1690998E1690998E16906A
:10026000998E1690A94D0000998E1690998E169031
:10027000998E1690998E1690611C00000000000067
:10028000998E1690998E1690998E1690998E16903A
:1002900000000000998E1690998E1690998E1690F7
:1002A000998E1690998E1690998E16900D1B0000BF
:1002B000998E1690998E1690998E1690998E16900A
:1002C000998E1690998E1690998E169000000000C7
:1002D0004368426D30B49A61EFF31182502383F387
:1002E00012884168D2B2856C0B68046D23EA05035D
:1002F00023430B6082F31188436981681A68096897
:1003000022F00102D0E908541A60826A1D605C6123
:100310005A60D0E90B429C60DA600023B0F86C2090
:1003200030BCCA620377704730B5FAB18E464FEAE7
:10033000014C034600F1C005002419680C3353F842
:10034000042C43F8084C41EA0C0142EA0E02AB428D
:1003500043F80C1C43F8042CEFD1D0F8C03043EA2A
:100360000E03C0E93144C0F8C03030BD4FEA014E41
:100370008C46DEE710B40C4C6368002B11DD0020C6
:1003800004F1080C0146DCF8AC3003F1C0025960FE
:100390000C339342FBD1013063680CF5867C8342B9
:1003A000F1DC5DF8044B7047A4200020F0B5474C09
:1003B00004EB401292F8543403B9F0BD4FF4B47C0E
:1003C000434B00264FEA401E0CFB004C9CF83A556C
:1003D0008CF83A6582F83A541D785A7895420DD0D7
:1003E00002EB420C560003EBCC0C9CF804C00CF161
:1003F000FF37012F5DD9BCF1030F55D004EB0E0080
:10040000A0F83814EFF31183702282F3128890F869
:100410003A24DBB2B0F8381442EA4102002192B229
:1004200080F83A1483F311881309247883EA12239D
:1004300083EA0201DCB11301C943D0F8502401243E
:10044000D0F83C049BB201F00F01D2F8AC208440FC
:100450000B4302F1C000590013F4004F8BB202D1DC
:100460005168214351600C328242F4D1F0BD130136
:10047000D0F83C44D0F8502401F00F0104F11000F2
:100480009BB20124D2F8AC200B43844002F1C0009F
:10049000590013F4004F8BB202D1516821435160CF
:1004A0000C329042F4D1F0BD571C07F00307AF4265
:1004B000A4D0324403EBC2030344597C00299DD0ED
:1004C00004EB0E03012283F83A2497E7A4200020CE
:1004D000B00A0024704700BF024B03EB401090F8B5
:1004E00055047047A4200020704700BF0A4810F848
:1004F0004C1C81B101EB410100234438490010B488
:100500001C4650F82320063302B114608B42F8D108
:100510005DF8044B704770479C3100200A4810F882
:100520004C1C81B101EB410100234438490010B457
:100530001C4650F82320063302B114609942F8D1CA
:100540005DF8044B704770479C31002001207047D4
:10055000034B00EB400003EBC00010F8330C704776
:100560009C3100202DE9F0431D4C14F84C3CABB3FA
:100570000022A4F144034FF0500E1A4E4FF02C0C01
:10058000194F154607E053F8181B01320D6014F897
:100590004C1C914222DD197C0029F4D05968FE20C0
:1005A0004FEA9128A8F58018B8F1520F98BF17F8B4
:1005B0000800EFF311888EF31288D1F824900CFB19
:1005C00000605FFA88F809F10109C0F88C90486969
:1005D00040F00100486188F31188D4E7BDE8F0835A
:1005E0009C310020B00A0024E0B6169007EE900A75
:1005F000B8EE670A704700BFBCEEC00A10EE103AB2
:1006000098B27047C84BD3E9BE1270B58C0FC2F3D5
:10061000072C100E83F82843C1F38364000183F88C
:100620002943C1F3016483F82A43C1F3074483F8E3
:100630002B43C1F30724C9B283F82C43C2F30354FC
:1006400083F82D13A3F82E03C2F3C030B3F82E1392
:1006500089B22143C2F30344A3F82E13C2F34031FD
:1006600083F83043C2F3803483F83103002083F8E9
:10067000324383F83313C2F3003183F8341393F811
:10068000801383F83503012940F2F380022900F03A
:10069000C580D3F800132A204FEA4C0C83F841435D
:1006A000C1F3C01201F07F010CF07E0C83F842C34D
:1006B0004FF0010C93F842431443D3F8042383F81A
:1006C0004243D40F83F84313910D83F84443C2F39C
:1006D000417401F00C01C2F3815583F84543C2F324
:1006E000826483F8464383F8471393F84713D3F89B
:1006F0000843294383F84713C2F3405183F8481352
:10070000002183F84913C2F3004183F84A13C2F36E
:10071000C03183F84B13C2F3803183F84C13C2F31A
:10072000403183F84D13C2F3003183F84E13C2F306
:10073000812183F84F13C2F30121C2F3460283F8EB
:100740005013C4F3074183F85123220E090283F8A2
:1007500052C383F85423C4F30722A3F85613240684
:10076000B3F8561389B21143A3F85613D3F80C13F8
:10077000C3F858430C0ED3F8582342EA0442C3F896
:1007800058230A0AD3F8584302F47F422243C1F3A4
:100790000724C9B2C3F85823D3F85853D3F8102309
:1007A0002C43C3F8584383F85C13110E83F85D1390
:1007B000110C0906C3F860131102D3F860430A460E
:1007C00001F47F01214392B2D3F81443C3F86013BC
:1007D000D3F860130A43C3F86023C4F30352D3F879
:1007E000601341EA1461C3F8601393F86413114372
:1007F000C4F3072283F86413210A01F47061A3F89B
:100800006613B3F8661389B21143C4F34602A3F822
:10081000661383F8682383F869C370BD1204D3F8A4
:10082000001302F47C12C1F3072CC3F838230A0E1C
:10083000D3F8384344EA0224C1F30742C3F83843EB
:10084000D3F8384322434FF40074C3F83823D3F865
:100850003823C3F87843013240F10004A40244EA8B
:1008600092549202C3F87443C1F38034C3F87023E6
:1008700012E74FEA8C2CD3F8001392004FF0010ED0
:100880000CF44064C1F3C26502F47F72C1F3072C1B
:10089000C3F83843D3F838432243CC0BC3F838238A
:1008A00004F00602D3F8384344EA9174C3F838439D
:1008B000C1F3026483F83C5383F83D43C1F34254CF
:1008C00083F83E43C1F3824483F83F43C1F3C0340D
:1008D00083F8402393F84023224383F84023D3F83E
:1008E000384393F8402393F8305302320EFA05F55B
:1008F0000EFA02F2C3F87853D617A2FB052E05FBB9
:1009000006EE04FB0EEE0134A2FB0424A644520AB8
:10091000C1F3803442EACE52C3F870234FEA5E221C
:10092000C3F87423B8E600BFB00A002403460122CE
:1009300000205A77704700BF08B5D0E90B218369C2
:100940000B4483610AB108469047002008BD00BFF0
:10095000436A02461B681B6A5B685B7813F0010000
:1009600008BF5077704700BFC2628161704700BF07
:10097000704700BF043070470430704770B50E4EAA
:100980000D461446D6F8E0333BB11A689B881269CD
:10099000134096F8DD2352B15BB9FFF733FED6F86A
:1009A00070234FF4007300202A60238070BD002B59
:1009B000F3D14FF0FF3070BDB00A00240020704723
:1009C00000207047034B93F8B003003818BF012094
:1009D000704700BFB00A0024034B93F8B00303280C
:1009E00094BF002001207047B00A002400487047DF
:1009F000640E0024174B002030B493F82A4014B141
:100A0000DD698D4205D0013010330B28F5D130BCA3
:100A10007047114BA2B1D3F8001401EB40218A4278
:100A200001D1022C05D093F8D02572B1012283F8B0
:100A3000E92303EB0013012283F8122430BC704732
:100A400003EB001080F81224E1E7012283F8D0259F
:100A5000ECE700BF980E0024B00A0024002330B455
:100A60001A4C04F57A7084F8BC3403E0013310307A
:100A70000B2B19D0C5698D42F8D190F82AC0BCF172
:100A8000030FF3D192B1D4F8001401EB43218A4251
:100A900005D094F8D025A2B1012284F8E92304EB13
:100AA0000313012283F8122430BC7047D4F8B82411
:100AB00004EB03130421013283F81214C4F8B824A0
:100AC000F2E7012284F8D025E6E700BFB00A00244F
:100AD0002DE9F84312F062FD224F4FF0000C05465D
:100AE0004FF48678204E7968002930DD00231C46BB
:100AF00008FB0372013392F805218B4244EA020499
:100B0000F6D144EA0C0C5FFA8CF97368C3F308035E
:100B1000D3B9EFF31183BBB912F06EFD431BB3F5EC
:100B2000FA6FCCBF4FF0000C04F0010CBCF1000FC9
:100B3000D9D1B9F1000F04D00C4B93F84026542AB8
:100B400008D04846BDE8F8836AF0BEFDE6E7E14616
:100B50000024DAE7B3F8482648460132A3F84826CD
:100B6000BDE8F883A420002000ED00E0B00A0024D6
:100B70002DE9F04FBD4D87B02B781BB9012007B090
:100B8000BDE8F08F6B68BA4A002BD2F8547618DDB6
:100B900005F108040020B749D4F8F430BFF34F8FB3
:100BA00003F59072C1F85C3220339342FAD1BFF35F
:100BB0004F8FBFF36F8F01306B6804F586749842D6
:100BC000EADBAD4BAD4EA3FB0723AD4FDFF8C8A268
:100BD0005B09A7F17C0BA6FB0326F60806EB86064D
:100BE000A3EB4606F3B207EB8606059307F53873C9
:100BF000029300239946DBF864344B4540F30F81A0
:100C0000DAF81830DAF80480D3E93D5412F0C6FC63
:100C10000122049002FA08F39A4901936118944B57
:100C200005EB410193F8580693F840361A460393B2
:100C300005EB4003542A00F04181019A994240F2A9
:100C40004481B3F800C01CEA020F00F04D81B3F8F4
:100C500002C01CEA020F00F04A81B3F804C01CEA8B
:100C6000020F00F04781B3F806C008331CEA020FF8
:100C7000E4D10192A3EB050E99424FEA6E0E40F2C9
:100C80002481A4EB0E04452C28BF452403EB440427
:100C9000A34280F01F8100259C46019AA846294660
:100CA000019618881040884214D15888104081421B
:100CB00040F0D78098881040814240F0D480D88896
:100CC00008331040814206D19C4207D91888104051
:100CD0008842EAD002339C4200F2A880B8F1110F9A
:100CE000019E40F2F780D8F1150200F1F3806649C9
:100CF000049C0B689E455E4BD3F85C0638BFC1F878
:100D000000E0231A002B13DB604B03449C4200F2EB
:100D1000F6805748C0F85C360B68052B40F2ED8032
:100D2000053BDBB2524880F858364FF0FF330B607A
:100D300042B105FA02F2C8F11408012505FA08F8D3
:100D400048EA0205524BC5F3C43203EB8202506DF0
:100D500005F01F0203EB8202516DC5F34412C5F387
:100D6000842503EB820203EB850541EA0031536DD4
:100D700041EA03116B6D41EA032181EA112383EA01
:100D8000131303F00F030F2B40F08880B1F5803F61
:100D900080F08480039B0909542B05D1344AB2F8B2
:100DA00044360133A2F84436DBF86433B1F5606FA2
:100DB00003F10103CBF8643300F0B380029B998107
:100DC00097F85830059883420CD0B2683B689B1A5C
:100DD0003B607B68326B9B1A7B600023B36033639C
:100DE00087F858003B6801333B60B3680133B36058
:100DF0004FF6FF73994205D17B6801337B60336BFB
:100E000001333363029B09F101095C375C3614330B
:100E1000B9F1080F0AF1200A02937FF4ECAE012326
:100E200001208BF8603407B0BDE8F08FA3EB0C0C09
:100E3000184833F8021C4FEA6C0C11400CF1010CFD
:100E400080FB0C60A0EBEC704FF0010C0128B8BFE8
:100E500001208540804401380CFA00F09C4605438F
:100E60001FE7043337E7063335E700BFA42000202F
:100E7000B00A002400ED00E01F85EB51CDCCCCCCB6
:100E800018320020C7FFFF7FCC02002020A10700FE
:100E9000E0B6169056555555DC240020039B542B84
:100EA00033D0DBF864330133CBF86433DBF86033E1
:100EB0004FF6FF710133CBF8603381E7204A994246
:100EC000A2F84A06019A3FF6BCAE18B101381C4B95
:100ED00083F85806039B542B94D1194AB2F846362E
:100EE0000133A2F846368DE702330192C2E604339D
:100EF0000192BFE606330192BCE6002312E7049894
:100F00000F4B0530C3F85C0606E70D4AB2F84436CD
:100F10000133A2F84436DBF864330133CBF8643391
:100F2000C4E7074A537803EB430302EBC3034B4484
:100F30005B7C0D2B7FF442AF8023029A93773FE7CF
:100F4000B00A002410B5044668F07AFE0146204637
:100F500089B2BDE81040FFF729BA00BF00EB40009E
:100F600010B5084C04EBC00414ED0F7A54ED0E7A62
:100F7000E7EE007AB0EE670A68F062FE54F8443C8F
:100F8000186010BD9C310020F8B5264B1A785B78AC
:100F90009A4242D1244E7368002B23DD002506F1CE
:100FA0000800224C2F46D0F8AC30BFF34F8F03F12E
:100FB000E002C4F8683220339342FAD1BFF34F8F76
:100FC000BFF36F8F337813B1037F012B20D04269B9
:100FD0000135716800F586701368A94243F001037A
:100FE0001360E0DC12F0DAFA114BD3F86844002CFD
:100FF0000DDD03F26C4303EBC4041968083333F8C6
:10100000042CC8689C4242EA0002CA60F5D1F8BDCF
:1010100080F8FC70FFF75CF9D9E760F077FA0028F8
:10102000B8D1F8BDB00A0024A420002000ED00E0F3
:101030009C3100204FF0B042F8B5D2F88030D2F8A1
:1010400088502B4003EA0005C2F888507DB1084F54
:101050000126B5FA85F4C4F11F0407EB840306FAF0
:1010600004F4D3F8600603689847A543F1D1F8BDAE
:10107000B00A00240269C3682DE9F04712EA0309A7
:101080002AD005460E464FF000474FF00008B9FA47
:1010900089F327FA03F21B3BD24309EA02092A61CA
:1010A000042B16D8DFE803F03B30251A0300B36A9F
:1010B000002B3FD003F1FF3AC6F828801FFA8AFAC6
:1010C000746A34B123682046514698476468002CFE
:1010D000F8D1B9F1000FDAD1BDE8F08770680028C7
:1010E000F7D0696B036889B29847B9F1000FCED188
:1010F000F2E7B0680028ECD0A96B036889B2984782
:10110000B9F1000FC3D1E7E7F0680028E1D0E96B3F
:10111000036889B29847B9F1000FB8D1DCE73069AC
:101120000028D6D0296C036889B29847B9F1000F1E
:10113000ADD1D1E7E96A1FFA81FAC1E78069B4301D
:1011400054F0C6B838B5134C41F20D13124941F2B0
:101150008832D4F88457D4F840072D048560C568D8
:1011600029400B430D21C36056F074FC38B1D4F80C
:101170007427034600201343C4F8743738BDD4F8ED
:1011800040375869C0F34320A0F10400B0FA80F062
:10119000400938BDB00A0024C0E0FEFF08B5FFF7E3
:1011A000D1FFB0B10C4BD3F8E00358B1016882888D
:1011B000096993F8DD330A402BB1002A0CBF0020E7
:1011C0004FF0FF3008BD002A14BF00204FF0FF3061
:1011D00008BD4FF0FF3008BDB00A002470B5164CB2
:1011E00005460E4694F8B033042B10D0082B15D1C9
:1011F000D4F8A83383421CD0002394F8E523C4F824
:10120000AC330AB1C4F8BC37FFF79CFF40B10823E8
:101210000220C4E9EA5684F8B03370BD012070BDE5
:101220000922D4F85436012084F8B023C4F8A0333E
:1012300070BD022070BD00BFB00A002438B590F820
:1012400028300446012B04D0407F40B1002363774F
:1012500038BD406A03681A7B8AB9637F0BB90120E5
:1012600038BD094D02232A4605F1200110F0FCFF8C
:101270006B7803F0010383F001006377E8E71B6AF2
:10128000002BEAD0002038BD00D40024F8B5144E5D
:10129000044690F8282006F12007437F012A04D055
:1012A0000BB1002363770120F8BD606A0268157BEB
:1012B0007DB9002BF7D00223094A394610F0D4FF3C
:1012C000737803F001036377002BECD094F82820A7
:1012D000E4E7126A002AE9D1002BE4D0EBE700BF73
:1012E00000D40024F0B511F0010583B00AD190F8C4
:1012F00028600446012E07D0C368B3F1807F01D96E
:101300000123237703B0F0BD0A4B476AD3F8C00727
:1013100011F07AF9E368B880B3F1807FF2D9B72190
:101320002A46384633468DF8041001A9267710F076
:101330009BFFE7E7B00A002470B5002394B0054690
:10134000224C069302200B9304F120021093139376
:10135000119301921E4E6A6A04960E460094029002
:10136000CDE90E3301238DF80C3007938DF8203032
:101370008DF834308DF848302B7F002B14BF0523B7
:1013800004230C9304F140030593124B0993A4F139
:1013900020030A93106866F0C3F92B7FA3B1A4F170
:1013A0006002330E1E3C82F84130320C6946330A2B
:1013B000A67022706370686A10F026FE6B6A186867
:1013C00066F0AEF914B070BD1F3CEEE760D40024A7
:1013D000510910902D09109010B594B00446502278
:1013E0000649684669F060FF6946606A10F00CFEC5
:1013F000636A186866F094F914B010BDB4B716901B
:101400002DE9F8431F46436A04468846186891460A
:1014100066F086F9237F002B3BD0A0690523264D7B
:10142000264E6B63030EC23606F8013CB070030C07
:10143000000A012F337070704FF00000D8F80030B0
:101440002B64D9F80030AB642363A86527D0022F42
:101450001DD1D9F8042028651344D8F8041085F864
:101460004C00EA65012269652363154B85F860200D
:101470006B66144B617F03F11402606A002914BF8C
:101480001946114610F0C0FDE36A7BB1206BBDE840
:10149000F883094D0423A0690B4E6B63C6E7084B24
:1014A00085F84C706865E8652B65E2E7636A186843
:1014B00066F036F9EAE700BFCC02002000D4002431
:1014C00039091090D0020020C1D4002400B583B0A7
:1014D0008161019201A9049A00930123C2626A46C4
:1014E000FFF78EFF03B05DF804FB00BF2DE9F0436A
:1014F0009846436A95B0054618680E46334C9146A7
:1015000066F00EF90223324A0027029304F5807335
:10151000049204F1E002009304F59073297F019393
:10152000012305928DF80C300697002936D08DF8EE
:101530003430E2348DF84830330ECDF82C9004F876
:10154000013C05238DF82070CDF830801397079368
:10155000CDE90977CDE90E77CDE91077330CA67088
:101560001C4F360A23706670D7F8C00711F04CF88C
:101570006C6A6B7FA08033BB05A9204610F044FD48
:101580006B6A186866F0CCF8D7F8C40711F03CF81D
:101590006B6A9880404615B0BDE8F0838DF8343012
:1015A000E1348DF848300423CDF82C908DF82010CC
:1015B000CDF8308013910793CDE90911CDE90E11D3
:1015C000CDE91011CAE76946D7E700BF00D400246F
:1015D00051091090B00A002470B511F0010384B0D5
:1015E000019301D004B070BD04466AF049F8019B34
:1015F0006621606A1A46234D6AF052F8019B9921D0
:10160000606A1A466AF04CF86AF05EF8A5FB00239F
:101610009B09013323626AF057F8226AA5FB001385
:10162000D2EB9313F7D40025204625626AF028F800
:10163000012303AA3521606A8DF80C506AF01CF86A
:101640009DF80C3013F00205CCD103AA01233521FB
:10165000606A8DF80C506AF00FF89DF80C602B460C
:101660002A46606A502146F002066AF019F8012302
:1016700003AA3121606A8DF80C606AF011F804B099
:1016800070BD00BFD34D621010B5044669F0F8FF7D
:1016900000230621606A1A466AF002F80023C72177
:1016A000606A1A4669F0FCFF6AF00EF8034A044BC0
:1016B000A2FB002003EB9010206210BDD34D6210FE
:1016C000400D0300F8B5394C08461146D4F8E053F4
:1016D0004DB12A68AD881269154094F8DD23002ABF
:1016E00044D0002D44D110F01F0241D10125C4F88F
:1016F000C807C4F8D037C4F818534FF40075C4F8BD
:10170000CC57002848D094F87057012D30D1D4F828
:101710009057C4F874275A18AA4234D81A465FF072
:1017200065FB28BBD4F81833002BFBD1D4F8403725
:1017300041F20D161E4FD4F88457184641F28832F4
:101740000D212D049D60DD683D403543DD6056F080
:1017500081F980B9D4F840375A69C2F34322042A88
:10176000E9D1D4F85436C4F8D437F8BD002DBAD135
:101770004FF0FF30F8BDD4F87427D4F84037104349
:10178000C4F87407D7E7D4F874374FF0FF3043F04C
:101790000073C4F87437F8BDD4F874374FF0FF30D5
:1017A00043F00063C4F87437F8BD00BFB00A0024EA
:1017B000C0E0FEFF70B52D4D08461146D5F8E04358
:1017C0003CB12268A4881269144095F8DD23AAB3BD
:1017D000B4BB01220446C5F81C23C20630D15E0208
:1017E000BFF34F8F3EB100EB060C214EC6F86842A6
:1017F00020346445FAD1BFF34F8FBFF36F8F58B3D6
:1018000095F87027012A1BD10022D5F89047C5F81A
:1018100074275A18A24216D81A465FF049FB78B9C5
:10182000D5F81C33002BFBD15FF0A4FB0428FBD1BF
:10183000D5F854360020C5F8D43770BD002CC8D177
:101840004FF0FF3070BDD5F874374FF0FF3043F0E4
:101850000073C5F8743770BDD5F874374FF0FF309A
:1018600043F00063C5F8743770BD00BFB00A0024B0
:1018700000ED00E010B4294C94F88C346BB3D4F82C
:101880009424904235D0012B27D0D4F87025824281
:1018900037D0022B21D0D4F84C26904233D0032BE2
:1018A0001BD0D4F8282790422FD0042B15D0D4F881
:1018B000042890422BD0052B0FD0D4F8E02890427A
:1018C00027D0062B09D0D4F8BC29904223D0072B6F
:1018D00003D0D4F8982A824211D0DC22591C02FB92
:1018E000034284F88C14C2F8940418465DF8044B43
:1018F00070470023DBB25DF8044B1846704707239E
:10190000F8E70123F6E70223F4E70323F2E70423D1
:10191000F0E70523EEE70623ECE700BF9C3100204B
:1019200000207047704700BF014854F06FBE00BFF1
:10193000A0120024084810B4D0F8F037D0F824489A
:1019400099691A682CB1234600F5FE605DF8044BD6
:1019500018475DF8044B7047B00A0024014854F062
:1019600055BE00BF04130024084810B4D0F8543802
:10197000D0F8884899691A682CB1234600F65400BB
:101980005DF8044B18475DF8044B7047B00A00241B
:1019900003282DE9F04FD4BF0026012685B0B0F111
:1019A000FF3F08BF46F001068DF80F30002E40F0D3
:1019B0008780864F6423044603FB0073D3F8F00747
:1019C00000287ED093F83158202D40F08E8093F877
:1019D0003058012D00F089800125D7F8688983F8F7
:1019E000305805E0D7F86839A3EB0803192B6CD8F9
:1019F000856915F40045F5D14FF0640B744BCDF8B3
:101A000000804FEA41090BFB04FB49460BEB030A3C
:101A1000BB4421235046CBF824588BF8313840235F
:101A20008BF832380DF10F03CBF83458CBF814385B
:101A30000123ABF81A380A2360F01CFC002879D186
:101A4000BBF81A389BB2FF2B40F29880DBF8F017F6
:101A5000FF236048ABF818384B685F4A034043EAFD
:101A600009031A434A60642505FB047505E0B5F8CF
:101A70001A389BB2002B00F0938042460A21504650
:101A800054F002FE88BBD5F81438D5F8F02713F8C7
:101A9000010BB5F818189062C5F814380139B5F87B
:101AA0001A3889B2013BA5F818189BB2A5F81A3864
:101AB000B5F81A389BB2002BD9D00029D7D124E031
:101AC0000026304605B0BDE8F08F642320210022B7
:101AD00003FB0474D4F8343884F830280B43C4F87A
:101AE000343884F8311884F83228B7F86C39304625
:101AF00001339BB2A7F86C3905B0BDE8F08FD7F879
:101B00006839A3EB08030A2B27D8916911F08001EB
:101B1000F5D0B5F81A389BB2FF2B0ED953682D4972
:101B20000B402D4943EA09031943FF23A5F8183850
:101B300051609CE78BF83058D7E7B5F81A3825483C
:101B40009BB25168A5F81838DBB2014049EA03435B
:101B50000B4343F00073536089E7642303FB047471
:101B6000D4F8343884F8301843F02003C4F83438FB
:101B7000202384F8313884F83218B6E7BBF81A38D5
:101B8000DBF8F0179BB213484A68ABF81838DBB2A1
:101B9000024049EA0343134343F000734B6062E79A
:101BA0004146504660F0E2FB00289ED1D5F8F03760
:101BB00020210A4C0126D9615A6822405A6085F8D2
:101BC000311885F8300885F832087AE7B00A002421
:101BD000A0120024009C00FC0000FF0100E800FEB1
:101BE0002DE9F047904C6425074682B005FB00457F
:101BF000D5F8F007002800F0A28095F83168202E73
:101C000040F0AF800A9E002E00F0B58095F8306855
:101C1000012E00F0A680012685F83068D4F86859B6
:101C200005E0D4F86869761B192E00F2A980866950
:101C300016F40046F5D14FF0640A4FEA41097B499A
:101C40009BB20AFB07FA00950AEB0108A2440A9925
:101C50004046CAF82468CAF8141822218AF83118B4
:101C600040218AF832184946CAF83468AAF81A3866
:101C70000A2360F03DFB002840F0D280BAF81A3801
:101C80009BB2FF2B00F28D80BAF81A38DAF8F01701
:101C90009BB267484A68AAF81838DBB2024049EAA2
:101CA00003431343634A1A434A606426624AFF208F
:101CB000DFF890A106FB0746D6F8F01704E0D4F849
:101CC00068395B1B0A2B3DD88B6913F0040CF6D0E6
:101CD0004B6AD6F814180B70B6F81A38B6F818C84C
:101CE000013B0CF1FF3C9BB21FFA8CF1A6F81A38AD
:101CF000D6F81438A6F818180133C6F81438B6F810
:101D00001A389BB209B9002B59D1B6F81A389BB2D0
:101D1000002BD1D12946404660F028FB034600BB8A
:101D2000D6F8F02720244548D461516801400120AD
:101D3000516086F8314886F8303886F8323802B07B
:101D4000BDE8F0876423202203FB0747D7F8343827
:101D500087F830C81343C7F8343887F8312887F834
:101D600032C8B4F86C39002001339BB2A4F86C3946
:101D700002B0BDE8F0874FF40073C5F83438F0E7DF
:101D800064232021002203FB0747D7F8343887F863
:101D900030280B43C7F8343887F8311887F83228D1
:101DA000DFE7DAF8F017FF232148AAF818384B6864
:101DB000234A034043EA09031A434A6075E7D6F809
:101DC000F0E704E0D4F868395B1B0A2BBAD8DEF8D8
:101DD000183013F0800CF5D0B6F81A389BB2FF2BF0
:101DE0000BD9DEF80430A6F81808134043EA0903BB
:101DF00043EA0A03CEF8043087E7B6F81A38DEF86B
:101E000004C09BB20CEA020CA6F81838DBB249EA0F
:101E1000034343EA0C0343F00073CEF8043074E745
:101E20008AF830689DE700BFB00A0024A0120024A1
:101E3000009800FC00240082009C00FC00E800FEEA
:101E40000024FF810000FF01114A037A0168D35C7E
:101E500010B4CC58CA1824F00104CC501368DB0726
:101E6000FCD4037D1F2B09D9203B20225DF8044BB5
:101E700002FA03F343F01803CB60704720225DF8A9
:101E8000044B02FA03F343F018038B60704700BF62
:101E900054731790F8B507680646D7E90454A06153
:101EA0002B7D1F2B49D9203B2022286802FA03F3FF
:101EB00043F01803C360237D1F2B48D92022203B09
:101EC00002FA03F3226843F01803D3606368002228
:101ED00069680A601A601A6842F010021A60BA69EA
:101EE000297A64F07BF9FA69217A206864F076F93E
:101EF00033682E681A6A5B6891685868184A02400D
:101F000020680A4317495A602A7A8D5C725942F058
:101F100001027251227A895C425842F00102425019
:101F20009A6842F440429A601A6842F001021A60CC
:101F30001A6842F400721A60F8BD2022286802FA7A
:101F400003F343F018038360237D1F2BB6D82022B0
:101F500002FA03F3226843F018039360B6E700BF68
:101F60000000FFFF5473179010B1036882889A61D4
:101F7000704700BF18B1838802681B0493617047E3
:101F800008B51D2010F004FF08B183794BB11E2065
:101F900010F0FEFE08B1837903B108BD5523C3805C
:101FA00008BD5523C380F2E7D3B20F2B2AD84FF0D8
:101FB000000C10B46346144C04E001332A2B1DD0EE
:101FC00014F803CF6045F8D194F801C08C45F4D1E2
:101FD0000E4C03EB43030E4902EB420C23445DF825
:101FE000044B01EB8C0201F17C0093F8263100EBED
:101FF0008C00C2F8843082F87C30704700205DF895
:10200000044B70470020704704B81690E0B6169055
:10201000CC02002010B40C4C002304F6841C01E018
:10202000152B0CD003EB430201331CF80210814244
:10203000F6D122445DF8044B92F9860970474FF0BF
:10204000FF305DF8044B7047B00A002430B4002321
:10205000114C124D04E001331A2B1AD054F8085FCA
:10206000A842F8D125798D42F5D10D4C02EB4205FD
:102070000C4904EBC30301EB850201F17C0093F8EA
:10208000A93100EB8500C2F8843082F87C3030BC86
:102090007047002030BC704784B8169000000140A3
:1020A000E0B61690CC020020F0B1002310B5044633
:1020B0000E4894F804E000F6841C01E0152B11D0C2
:1020C00003EB430201331CF802107145F6D10244C0
:1020D0006179206892F98629D3B20F2B02D8BDE826
:1020E0001040B3E7002010BD00207047B00A002464
:1020F0000138074B074A00EBC00003EB8000D0F823
:102100003C0190420CBFA020A12060F095BB00BF15
:10211000CC0200200000024001382DE9E84100EB2C
:10212000C000134D1E46134B05EB800590460F462D
:10213000D5F83C0198420CBFA020A12060F07CFBA8
:10214000B5F952014FEA5811C5F84C71C5F8546100
:1021500060F05CF9B5F95231002B07DB03F01F008A
:1021600001225B090449824041F82320BDE8E8814F
:10217000CC0200200000024000E100E0800AA0F54F
:102180008010522806D8044B1B5C0D2B02D8034A42
:10219000D056704700207047E0B6169044731790F1
:1021A0002DE9F04387B09DF8389000283CD0B0F876
:1021B00004801446B8FA88FCBCF1200FCCF11F0251
:1021C00032D0244F4FF0004E234DBE1805EB820253
:1021D00096F87462C2F860163EFA0CF209D04FF01D
:1021E000B041D1F880C02CEA020CC1F880C0C1F81F
:1021F000882007EB890703F0030235440068D7F80D
:102200008412CDF804800A4301A90292C3F341125B
:10221000C3F38103039204930023059354F0BEF8A3
:1022200095F8C439A34202DC07B0BDE8F0830B4B3C
:10223000611185F8C4499C5D204660F0E7F804F020
:102240001F0101236409064A8B4042F8243007B07D
:10225000BDE8F083E0B61690B00A00243C731790F6
:1022600000E100E070B183884FF00042B3FA83F3DD
:1022700032FA03F306D04FF0B041D1F88020134377
:10228000C1F88030704700BF0120FEF7D3BE00BF09
:102290000220FEF7CFBE00BF0420FEF7CBBE00BF7A
:1022A0000820FEF7C7BE00BF1020FEF7C3BE00BF68
:1022B0004FF47870FEF7BEBE4FF47C40FEF7BABE16
:1022C00030B1036882881B691A4214BF01200020C4
:1022D000704700BF70B50C4686B00546164640B143
:1022E00001680E4B0E4A0B449B0A02EB4303B3F802
:1022F000900260F0A1FA04F01303AA8801A90293E6
:10230000C4F341132868C4F3810401920596CDE912
:10231000033454F043F806B070BD00BF0000FEA7C0
:10232000E0B6169000B1D5E770472DE9F84FC34FDE
:102330006423044603FB0073D3F8D867002E00F033
:102340006D81D3F8E0A7BAF1000F04D09AF80630F7
:10235000002B40F06381642303FB0473D3F8E4573C
:102360001DB1AB79002B40F05981631CDBB2BAF18F
:10237000000F04D015228AF807308AF8062015B11C
:102380001622EB71AA714FF06409308B60F054FA99
:10239000294609FB04F9504665F0C6F9504607EB9B
:1023A000090898F8EA3798F8E827002B14BF3E216F
:1023B0001E21FFF7B7FF98F8EA372846A04D002BFB
:1023C00098F8E9274D44DFF8989214BF3E211E216A
:1023D000FFF7A8FF4C220021284668F0D9FFD8F863
:1023E000D837984A5B689342C8F8F037DFF87482B0
:1023F00040F0168154F014FCD9F82030C3F30213D6
:102400009FED917A9FED915AB0EE084A4344F7EE62
:10241000003A4FF0000E40F2145893F8A03203F047
:102420001F03D840642307EE900A03FB0473F8EE01
:10243000677AB3F8EC97C7EE275A07EE909A9FEDAC
:10244000847AF8EEE77AC7EE274ADFED827AB0EEBB
:10245000007AE5EE877AA5EE875A25EE844A37EEB4
:10246000856A74EEE72AB9F5C87F0EF1010CD5BF75
:10247000642332234FF49670782007EE90CAD8BFB9
:102480004FF4167A0344C8BF4FF4827AB8EEE77A65
:10249000D8BF414607EE903AC8BF4FF4FA7127EE15
:1024A000257A01EB0A03F8EEE76A86EE873A73EEC7
:1024B000636AFCEEE67A17EE902A07EE90AAB8EE71
:1024C000E73A07EE903AF8EEE77A23EE243AC3EEC5
:1024D000276A36EEC53A72EEE66AC3EE077A77EE01
:1024E000E37AFCEEE77A17EE901AC6EE877A77EE7B
:1024F000E37AFCEEE77A17EE903A03F1020A0AEB70
:10250000010BF0EE466A07EE90BAF8EE677AE7EE56
:10251000276AF4EEE64AF1EE10FA00F388805FFADB
:1025200082FABAF10F0F00F28480323807EE900A77
:10253000F8EEE77A77EEC47AC7EE876AFCEEE67AC1
:1025400017EE900A5FFA80FABAF10F0F71D81FFAEE
:1025500081FABAF1FF0F6CD81FFA83FABAF1FF0FB4
:1025600067D812054AEA0E7302F07F620004134333
:1025700000F47F00384A034302EA01210B43642040
:1025800000FB047400272846C4F8F4370123C4F87C
:10259000F877C4F8FC37C4F80078C4F80478C4F8B5
:1025A0000C78C4F8107864F01BFD94F83138202BB7
:1025B000D9B21AD194F83038012B16D0242384F8DC
:1025C0003138D4F8F0371A6822F001021A601A681C
:1025D00022F480521A601A681A601A6842F00102E6
:1025E0001A6084F8311884F830780121F07E5FF0A9
:1025F0000DFFF37E0124194D5A0903F01F032146F4
:1026000004FA03F345F82230B07E5FF0FFFEB37E9C
:102610005A0903F01F039C4045F82240BDE8F88F9B
:1026200054F0FEFAD9F81C30E8E6E6461BE7013123
:1026300065E7BCF10F0FF8D10023A0E7B00A002432
:10264000A0120024001C0058286B6E4E0000164398
:10265000002474490000704200FFFF0000E100E028
:1026600000440258E0B616902DE9F843B14C04EB53
:102670000017D7F8CC39002B00F0BF8005460601C3
:10268000B7F8D60960F0D8F8B7F8D639012103F0C9
:102690001F025B09023B01FA02F2082B0FD8DFE8A8
:1026A00013F0080110011801200128010900300170
:1026B00038014001A04BD96F21EA0202DA67A31961
:1026C000013593F8D009EDB210F062FB074610B166
:1026D0001223C5718371A31993F8D10910F058FB27
:1026E000814610B11323C5718371A31993F8D209E0
:1026F00010F04EFB804610B11423C5718371344431
:1027000048462E2194F8D429FFF70CFE94F8D529D9
:102710000E214046FFF706FE94F8D3292E213846B5
:10272000FFF700FED4F8CC3984491A688B4222F0B6
:1027300001021A6063D0824A934200F08F8002F552
:102740008062934279D17C4AD2F8901041F40041E2
:10275000C2F89010D2F8901021F40041C2F8901005
:10276000DA6842F00042DA609A6822F4F0729A6005
:102770001A68D60741D473499D68D1F89423D1F8DB
:102780009C4344EA0200D1F8842310436E4A2A4055
:102790001043D1F890239860DD68D1F88003ED00F4
:1027A0007BD50243D1F88803DE68B4F5800F42EA96
:1027B0000002D1F88C03654D42EA0002D1F898037B
:1027C00005EA060542EA0002D1F87C0300F4C026BF
:1027D00000F4006042EA060242EA0502DA601A6882
:1027E00022F4006242EA00021A6002D1D1F8A0236A
:1027F0001A641A6D22F001021A65BDE8F8834E4A88
:10280000D2F8981041F48051C2F89810D2F898107C
:1028100021F48051C2F898104D4A9342A0D1464A03
:10282000D2F89C1041F02001C2F89C10D2F89C1004
:1028300021F02001C2F89C1092E7464A93421BD136
:102840003D4AD2F8981041F40051C2F89810D2F8DD
:10285000981021F40051C2F8981081E7364AD2F856
:10286000901041F48041C2F89010D2F8901021F4F9
:102870008041C2F89010CFE7374A9342CCD12E4A1C
:10288000D2F8981041F48011C2F89810D2F898103C
:1028900021F48011C2F8981062E7B2F1806F80D104
:1028A000B0F5800F7FF47DAF1D6845F480551D6045
:1028B00077E7214BD3F8981021EA0202C3F8982059
:1028C000FDE61D4BD3F8901021EA0202C3F89020D8
:1028D000F5E6194BD3F8941021EA0202C3F89420CC
:1028E000EDE6154BD3F8801021EA0202C3F88020F0
:1028F000E5E6114BD3F8841021EA0202C3F88420E4
:10290000DDE60D4BD3F88C1021EA0202C3F88C20CF
:10291000D5E6094BD3F8881021EA0202C3F88820D3
:10292000CDE6054BD3F89C1021EA0202C3F89C20A7
:10293000C5E600BFB00A0024004402580030014040
:1029400000380040CC020020E0FFBF8FFFFF39D8E5
:1029500000140058003401400050014008B100222A
:10296000B8E470470E4B70B5D3F86464002E14DDE4
:102970000C4C002503E0B54204F120040DD0237F68
:102980000135002BF7D0E06800220028F3D0217D2C
:102990002034FFF79FFCB542F1D1012070BD00BF8C
:1029A0009C310020DC2400202DE9F04FBB4D7C221F
:1029B0009BB0002105F5E86068F0EAFCD5F82C4AE8
:1029C0004FF4805295F8326A2368C5F84827C5F855
:1029D00040371EB14FF48042C5F84C274FF4003207
:1029E000C5F850270222C5F8542795F87027002A09
:1029F00000F0A2800322AA4B85F87027DA6CD0037E
:102A00004AD50AA854F046F90C9AA649130AA1FB24
:102A100003131B095C00D5F84007A242A24946688F
:102A200001EA060143EA01034360036843F003033C
:102A3000036046D2D5F86829D5F868399B1A022B6D
:102A4000FAD90023994ADFF8889204938360C36817
:102A500097491A40D9F8A433A1FB033141F28833D6
:102A600042F48052490AC26003FB01F10B4602E0C6
:102A7000426B170633D4013BFAD24FF000400123DA
:102A80002A2285F87037D5F874371843C5F87407CB
:102A900010461BB0BDE8F08F996A9C6ADE6A14F498
:102AA0007C7FC4F30512586B40F09480D5F8400742
:102AB00014467D4B41680B404360036843F00303B9
:102AC0000360D5F86819B2FBF4F47A4AB2FBF4F269
:102AD0000232D5F868395B1A9A42FAD8B1E7764BD8
:102AE0004C1E724A83634FF4D5738360C3681A40E7
:102AF00041F208131343C360234649B1426B013BC3
:102B000012F0450F02D0910440F1E4805E1CF5D133
:102B10000023C5F87C378360644BC268134043F4DC
:102B20008053C36003E0436B190600F18D83661C7C
:102B300004F1FF34F7D1A0E7604A934200F092809D
:102B40005F4A934200F0838395F8400A10F020F921
:102B5000034695F8420A019310F01AF9804695F859
:102B6000380A10F015F9019B074695F83ABA95F81E
:102B70003CAA95F83E9A2BB1184695F8412A0E21A9
:102B8000FFF7A8FBB8F1000F05D0404695F8432A9F
:102B90000E21FFF79FFB2FB1384695F8392A0E21F9
:102BA000FFF798FB002E40F0FF820121B4F90400EA
:102BB0005FF02CFCD5F82C3AB3F90430002BFFF66B
:102BC00019AF03F01F0001225B093E49824041F822
:102BD00023200FE7C0F3CC0006F0010601F003014B
:102BE00006FB00F0012907EE900AF8EEE77A05D01F
:102BF000022900F0C983002900F0A18307EE102A02
:102C00009FED315AF8EEC76A1B6B85EE267A9FED71
:102C10002F6AC3F3080306EE903AF7EE005AF8EE77
:102C2000E66A76EEA56AE7EE866A27EE267A1C4A01
:102C3000F7EE006A1B49136B136B126BC3F3064369
:102C400007EE903AF8EEE77A77EEA67AC7EE276AB3
:102C5000FCEEE67A17EE902A130AA1FB03131B0978
:102C60005C00D8E60E4BD3F8D42022F48032C3F8AF
:102C7000D420DA6F42F48032DA67DA6F22F48032DD
:102C8000DA67D3F8D42042F48032C3F8D420D3F8E2
:102C9000D43003F480330393039B55E7B00A002438
:102CA00000440258598B4F01002CC0FFC0E0FEFFCA
:102CB000D34D621010210100C500200000700052A9
:102CC0000024024800E100E00024744A00000039BA
:102CD000CC020020436B5A0700F15D83436BDB0796
:102CE00000F12983436B5F0600F1D18201220023AA
:102CF0003721C5F87C2783605E4AC3681A4041F2D9
:102D00003713134341F28832C36054F0A3FE002806
:102D10003DD1049A4FF6FE739A4200F2B380D5F883
:102D20004047544EDFF85881534F002041F237138B
:102D300041F288323721A0602046D4F80CC00CEA5A
:102D4000060C4CEA0303E36054F084FE00287FF491
:102D500096AED5F8404741F22911D9F8A43341F293
:102D60008830C4F80880A7FB0332E368520A334076
:102D700000FB02F21943531EE16042B1626B013B5A
:102D800012F0450F01D0900404D55A1CF6D14FF033
:102D9000805074E6636B590700F1FB81374BA363E6
:102DA0006269049B002A03F101030493049B03DB83
:102DB0004FF6FE718B42B8D904994FF6FE739942D3
:102DC00000F26882520063D5236801229B07C5F890
:102DD000782700F0E6810023264E2046A36041F2CA
:102DE0000233E26832401343E36054F0CDFE034601
:102DF00098BBD5F84047D5F87807626904F1180107
:102E00000328C5F8AC27A269C5F8B027E269C5F860
:102E1000B427226AC5F8B82700F09284A36041F273
:102E20000313E168D9F8A42331400B431249A1FBF5
:102E3000021241F28831E360520A01FB02F2531E92
:102E40004AB1626B013B12F0450F02D0900440F191
:102E50002D825E1CF5D14FF0004301212A2285F816
:102E600070171046D5F874170B43C5F874371BB0AC
:102E7000BDE8F08FC0E0FEFFD34D6210C50020001A
:102E8000000010C1049A9A4200F20482D5F840472B
:102E900023689F0700F08581D5F8780703289AD129
:102EA000D5F89C2704F11801D5F8A0370968090D59
:102EB000C5F88017910F8DF82810C2F383618DF843
:102EC0002910C2F301618DF82A10C2F307418DF871
:102ED0002B10C2F30721D2B28DF82C108DF82D20C3
:102EE0001A0DADF82E20C3F303428DF83020C3F342
:102EF000C0328DF83120C3F380328DF83220C3F315
:102F000040328DF83320C3F300328DF83420002294
:102F10008DF83520002840F0658140F6FC71D5F829
:102F2000A42701EA8303C2F3C26143EA92730E93BA
:102F3000C2F342538DF83C10C2F302618DF83D108C
:102F4000C2F382418DF83E30C2F3C2338DF83F1098
:102F50008DF840300E9B9DF84010013301F00701C1
:102F6000023103FA01F19DF8303003F00F00012324
:102F7000C5F888178340C5F88C375B0A01FB03F35B
:102F80004FF40071C5F89037C5F89417C2F380313B
:102F9000D5F8A837D5F8840701278DF84110C2F37A
:102FA000C61102F07F0200048DF84210D90F8DF88F
:102FB00043208DF84410C3F34171B84E8DF845108D
:102FC000C3F382618DF84610C3F383518DF8471027
:102FD000C3F340518DF8481000218DF84910C3F318
:102FE00000418DF84A10C3F3C0318DF84B10C3F384
:102FF00080318DF84C10C3F340318DF84D10C3F380
:1030000000318DF84E10C3F381218DF84F10C3F3BA
:103010000121C3F346038DF8501007218DF851307C
:1030200041F207138DF85270A0602046E2683240EA
:10303000134341F28832E36054F00CFD034600284C
:103040007FF40BAFD5F840074FF4007341F210182E
:1030500041F2883283601021C368334043EA080399
:10306000C36054F0F7FC002840F0E180D5F8400739
:10307000D5F8684943699F0100F19080402741F2EB
:10308000883210218760C368334043EA0803C36075
:1030900054F0E0FC034600284DD1D5F8843741F2C6
:1030A0008832D5F8400737211B048360C3681E406F
:1030B00041F237133343C36054F0CCFC034600287D
:1030C00039D1D5F840074FF0FF32426287620133B1
:1030D0001F2BFCD9C36A00220D2123F0FF0343F00C
:1030E0006303C36282606D4AC3681A4041F20D13E4
:1030F000134341F28832C36054F0ACFC0346D0B9AC
:10310000D5F840070AAB05E0D5F86829121B013253
:1031100000F04581426B12F4957F426B40F0428192
:103120001604F1D503F12001D0F8802043F8042BD8
:103130008B42F9D1E8E7D5F87427D5F84007C5F8F0
:103140007427574901228163D5F874170B434FF454
:103150000071C5F8743741F2101385F8702781604B
:103160004E4AC1680A401021134341F28832C360BD
:1031700054F070FC40B1D5F84027012348499163D1
:10318000C5F8740785F870372A2210461BB0BDE8D1
:10319000F08F04234FF08050A36370E44FF400637A
:1031A000CFE74FF0806358E658460FF0F1FD20B1AD
:1031B00095F83B2A0E21FFF78DF850460FF0E8FDF9
:1031C00020B195F83D2A0E21FFF784F848460FF00C
:1031D000DFFD00283FF4E9AC95F83F2A0E21FFF708
:1031E00079F8E2E4012815D11B04D5F8A4274FF49F
:1031F000007103F47C13C5F88C1743EA1243C5F839
:1032000094170E930E9B01339B02C5F88837C5F8BF
:103210009037BBE6224A4FF080530121A263D5F8D4
:1032200074271A43C5F8742785F8701715E6D5F882
:1032300040371B4A9A632A22D5F874371843C5F8D9
:10324000740785F8707723E4164B836361E5164BAA
:10325000D3F8DC2022F40072C3F8DC20D3F88420F9
:1032600042F40072C3F88420D3F8842022F4007260
:10327000C3F88420D3F8DC2042F40072C3F8DC20C9
:10328000D3F8DC3003F400730293029B5CE4402328
:1032900083632BE54FF08070FFF7F1BBC0E0FEFFCA
:1032A000FF0FE01FC500200000440258636B590760
:1032B00000F13682636B13F0010340F02D82236925
:1032C000DBB2032B40F02582B54BA363636913F493
:1032D000604F0AD05A0400F1398213F4004F14BF32
:1032E0004FF480534FF48033B7E51B0CAD4941F2E6
:1032F00009321804C5F88437A0602046E3681940F5
:103300000A43E26054F040FC034600287FF4A5AD78
:10331000D5F84047626904F11801C5F89C27A369F4
:10332000C5F8A037E069C5F8A407266AD5F878077C
:10333000C5F8A867BAE501238363FFF7E9BB1968FD
:10334000890640F1DE81186807EE102A96491B6B4A
:10335000C0F3C102B8EEC75ADFED945AC3F30803B5
:10336000D140B7EE007A06EE903A06EE101AF8EE6B
:10337000E66AB8EEC66A76EE876A86EE057AE7EE0A
:10338000A56A27EE267A52E407EE102A9FED885AA6
:10339000F8EEC76A38E404238363FFF7B9BB4FF044
:1033A0000043CEE6110700F1C581426B920700F1A0
:1033B000C581426B970609D5BEE1D0F88010D5F8DB
:1033C000682943F8041B121B0132E8D0426BD60473
:1033D000F3D4784B83630A9BC3F381128DF81420D6
:1033E000C3F340128DF815201A0A22F0FF0242EAB8
:1033F0001362DDE90B1392B209BAADF81620DAB206
:1034000006918DF81C20C3F307229DF83B108DF820
:103410001D20C3F303521B0C8DF81E200D9A23F0C0
:10342000FF03D4B22343ADF82030C2F385238DF8D7
:103430002230C2F301238DF82330C2F3031302F0CC
:103440000F028DF824304FF400738DF825208DF88D
:10345000261010218360534AC3681A4041F21013AA
:10346000134341F28832C36054F0F4FA00287FF429
:1034700082AED5F878179DF8243001299DF82520D3
:10348000DBB2D2B236D00323D5F84C47C5F8980743
:10349000994285F870373BD1D5F87427D5F8403775
:1034A00042F08052C5F87427D5F87427002A42D01C
:1034B00041494FF400723B48996341F210119A6000
:1034C000DA68104041F2883201431846D960102171
:1034D00054F0C0FA002800F0E480D5F8403701220B
:1034E00035499963D5F874371843C5F8740785F8DA
:1034F000702749E61343D5F84C474FF0030214BF39
:103500004FF400734FF4807385F87027C5F898372F
:10351000B4F5004FC0D0B4F5804F00F0C680002C49
:1035200000F08880D5F87427D5F8403742F0006263
:10353000C5F87427B8E7D5F85407D5F84427032809
:10354000D5F84867D5F8501709D8D5F89877B7F562
:10355000007F04D0B7F5807F0CBF022004203243E7
:103560000A43164922435C6821400A434FF4007124
:10357000024341F210105A6099600A4AD9680A4021
:103580001021104341F28832D860184654F062FA94
:103590000028A2D1012385F87037D5F8684914E0D6
:1035A000C5002000C0E0FEFF0090D00300000039FD
:1035B0000024F44A3A0F0018FF0FE01F002CC0FF50
:1035C000D5F868391B1B01332AD05DF0D3FC0428E1
:1035D000F6D100220121D5F87837C5F87427C5F84F
:1035E0006C2785F87017A3B18B427FF4CDAD022311
:1035F000584C85F8803304F2A4430FCB84E80F00C5
:1036000004F2B44310340FCB84E80F000022FFF71C
:103610003FBAD5F87C37002BEAD0012BE8D0B3E5D0
:103620004FF0004101232A22C5F8741785F870373E
:10363000FFF72EBAD5F84037CDE90A445A6992010E
:103640005CD40AA85DF0B8FC18BB0B9BDB036CD5FF
:10365000D5F884373721D5F840071B043E4E8360E8
:1036600041F23713C2683240134341F28832C360DB
:1036700054F0F0F968B9D5F840078460C26841F2A7
:10368000061306213240134341F28832C36054F0DE
:10369000E1F9D5F84037D5F874271043C5F8740719
:1036A00002E7012385F870376EE50022D5F8403730
:1036B000CDE90A225A69900120D40AA85DF07CFC69
:1036C0000028E6D10B9B59032FD5D5F88437372135
:1036D000D5F840071B04204E836041F23713C268BF
:1036E0003240134341F28832C36054F0B3F90028EA
:1036F000CFD1D5F8400702238360BFE74FF40060C5
:10370000C9E707EE102A9FED155AF8EEC76AFFF7D2
:103710007BBA0123FFF7A1BB0122A263FFF79DBB88
:1037200004221346A263FFF798BBD5F840374FF049
:103730008060B0E7082304E5202302E5022300E5CA
:10374000D5F89C27D5F8A037FFF7B0BB4FF400534E
:10375000FFF783BBA80D0024C0E0FEFF0024744CDB
:1037600010B51A4C94F8443A7BB1194B93F8A8035E
:1037700050B194F8A4330133DBB2072B84F8A4339F
:103780000CD9002384F8B03310BD012384F8443AE7
:10379000FFF70AF90E4B83F8A803E9E7D4F8E03302
:1037A00043B1196894F8DD239B8809690B404AB13D
:1037B000002BE6D1D4F854260123C4F8A02384F8C2
:1037C000B03310BD002BDCD0F4E700BFB00A0024FA
:1037D000CC020020F8B5974C94F8DC53002D00F093
:1037E000FF8094F8B0230226531E082B3CD8DFE854
:1037F00003F03234A43B674A163B0500FDF7A2FCF8
:10380000002840F0FE80D4F8A033D4F85426FA33D0
:10381000934226D2FFF7A4FF94F8B023E4E7FDF724
:1038200091FC0028EFD0D4F8AC230023012A84F8BF
:10383000A43340F2EA80D4F8A813013A0131C4E974
:10384000EA1294F8E5230AB1C4F8BC370823054608
:1038500084F8B03315E084F8B063FDF773FC0028FA
:103860004CD194F8B023531EDBB2022B00F2B0808F
:10387000D4F85436D4F8A0239B1AC82B00F2B48095
:1038800000252846F8BDD4F81C33002BF8D10722B8
:10389000D4F85436D4F8985384F8B023C4F8A0333D
:1038A000002DEED0D4F89C330120D4E9E321A847C1
:1038B000D7E7D4F8A033D4F8542664339342DFD248
:1038C000D4F81873002FF4D1FDF73CFC0028A3D0E6
:1038D0000423D4F8985384F8A47384F8B033002DEB
:1038E00000F08D80D4F89C333846D4F88C23D4F87B
:1038F0009013A84794F8B023531EB5E7FCF782FE57
:103900000028AED194F88033002BA3F10203B3FA60
:1039100083F314BF022201225B0984F8A52384F8F3
:10392000A633FCF76FFE00287FF474AFD4F8702341
:103930000323C4F8B42384F8B033FCF763FE0028F3
:103940008FD194F854530422B4F85613D4F8583352
:10395000C4F8AC03A4F8B813180ED4F85813D4F86C
:103960005833090C84F8BB031B0A84F8BA5384F853
:10397000BC1384F8BD33D4F8581394F85C0394F85E
:103980005D3384F8BE13D34094F85D1384F8BF030D
:1039900084F8C43301F00F01D4F86033B4F866033F
:1039A000C4F8C033B4F8663384F8C513C3F30B13FB
:1039B000B4F8661384F8B02343EA102301F00F0132
:1039C00003F00F0384F8C81303F5FA63A4F8C633B1
:1039D000082A18BF042A0CBF012500252846F8BD77
:1039E000284684F8B053F8BDFFF7BAFE94F8B053F8
:1039F000082D18BF042D0CBF0125002541E7054601
:103A00003FE7042384F8B0333BE7FAD194F8E52389
:103A1000C4F8AC330AB1C4F8BC37FDF793FB0028F7
:103A2000EFD10922D4F85436054684F8B023C4F8FF
:103A3000A03326E7B00A00242DE9F0435E4C0D4682
:103A400083B0064694F8B01390461F46042914D05C
:103A5000082956D1D4F8A83383420ED0002394F815
:103A6000E523C4F8AC330AB1C4F8BC37FDF76AFBF0
:103A700000284AD0042384F8B033D4F8BC37C3F309
:103A80004F205A0A0F28C4E9E35604D8D4F8AC935F
:103A9000B9F1000F44D101200622012384F8B0239C
:103AA000EA0684F89433C4F81C332B46C4E9E6874D
:103AB00066D14102BFF34F8F39B105EB010C3F498D
:103AC000C1F8683220336345FAD1BFF34F8FBFF39B
:103AD0006F8F002D62D094F87037012B50D10023E6
:103AE000D4F89027C4F874373318934242D802466A
:103AF000314628465DF0DCF9002841D103B0BDE82D
:103B0000F083012003B0BDE8F0830922D4F85436D5
:103B1000012084F8B023C4F8A03303B0BDE8F083DB
:103B200094F8E5130029B6D0B3F5005F3DD02448E2
:103B30004FF4007229460193184467F0B5FB019BCE
:103B400003F50073C3F34F205A0AC4F8BC3710289A
:103B50002BD0B9F1010F28D0D4F8A82309F1FF33F5
:103B6000042102200132C4F8AC3384F8B013C4F845
:103B7000A823C7E7D4F8743743F00073C4F8743748
:103B8000FFF7EEFDD4F89853A5B10120D4F89C338B
:103B90000022D4F89013A8470320B3E7D4F8743771
:103BA00043F00063C4F87437EAE793B2044D013B75
:103BB000F61A71E70320A5E7B00A002400ED00E043
:103BC000F82100242DE9F8433A4C0D46064690466C
:103BD00094F8B0139946042910D0082902D0002087
:103BE000BDE8F883002394F8E523C4F8AC33BABBEE
:103BF000FDF7A8FAD0B3042384F8B03315F01F0200
:103C000043D10123C4F8C857C4F81833C4F8D037D7
:103C10004FF40073C4F8CC37002D44D094F87037BB
:103C2000012BDFB231D1731CC4F87427D4F890276C
:103C3000934224D83A46314628465DF0D7F820BB57
:103C40000522D4F854363846C4F88C53C4F890632F
:103C500084F8B023C4F8A033C4E9E689BDE8F8834A
:103C6000C4F8BC37FDF76EFA0028C4D10922D4F895
:103C7000543684F8B023C4F8A033BDE8F883D4F8F0
:103C8000743743F00073C4F87437FFF769FDD4F854
:103C90009853002DA3D00022D4F89C33D4F890136D
:103CA0001046A8479BE7D4F8743743F00063C4F884
:103CB0007437EAE7B00A002410B503791F4C002BD3
:103CC00014BF0122002284F8DC232BD094F8313A6F
:103CD000D4F8E023003B18BF012384F8E53392B108
:103CE00011689388096994F8DD230B404AB953B9E8
:103CF00094F8A4330022013384F8B02384F8A43369
:103D000010BD002BF4D194F8443A73B10C4B93F8E6
:103D1000A8030028ECD1D4F85426012384F8A40386
:103D2000C4F8A02384F8B03310BD012384F8443ACA
:103D3000FEF73AFE024B83F8A803EAE7B00A002434
:103D4000CC020020F8B590F8EE311C09013C072C9C
:103D50000FD81B4E054603F00F0306EB4402B2F8E2
:103D6000D00240FA03F2D20703D595F8F971012F7A
:103D700001D00120F8BD07FA03F33444013B184099
:103D800064F068FE94F8E02213180E4A02EBC301B7
:103D900052F833208B8810691840EBD0002395F837
:103DA000EF210846022185F8F931FEF793FAD5F89C
:103DB00050213846136843F008031360F8BD00BF74
:103DC000E0B61690F814002410B5214C94F8F90DC3
:103DD0000EF0DEFF28B11F210022C1802021FEF756
:103DE00079FAD4F8003E3BB194F80C1E1A68C90762
:103DF0009B8848BF1B04936194F9332A0021032058
:103E0000FEF7D2F850B1D4F8E0335BB1196894F8FA
:103E1000DD239B8809690B4012B91BB9012010BD35
:103E2000002BFBD194F8443A4BB10A4B93F8A8030A
:103E30000028F3D1D4F85436C4F8D43710BD012388
:103E400084F8443AFEF7B0FD024B83F8A803EFE78D
:103E5000B00A0024CC020020044B082843F82010AC
:103E600003D1032908BF0021D96070475040005892
:103E700019481A4B01681A4A41F4807130B4016044
:103E800082B0D3F8F410FF24CA2041F48031C3F883
:103E9000F410D3F8F41001F4803101915321019D05
:103EA000546250625162D3F8D030DB010CD40D4B18
:103EB00000210D4A43F8041B9342FBD1084B0B4AE7
:103EC0001A6502B030BC7047126D084B9A42EED1B1
:103ED00002B030BC704700BF00480258004402588E
:103EE00000400058544000586C400058316665420C
:103EF000F0B50446D0F85C01454B83B0A16804F5E9
:103F0000967204F1E0070E68C1B220F0FF00019242
:103F10001039A3FB0131090962F0B0F9D4F81C1182
:103F20000023019A012984F8203118D0042916D0E1
:103F3000102958D0402912D0B1F5807F56D0B1F564
:103F4000806F53D0B1F5805F58D0B1F5803F4FF00E
:103F50003C030CBF6FF0080C6FF4006C01E06FF0D5
:103F6000080C06F118053046E95801EA0C01E95041
:103F7000D4F81C1160F0ACFFD4F81C31012B16D022
:103F8000042B14D0102B0FD0402B10D0B3F5807F12
:103F900030D0B3F5806F2DD0B3F5805F32D0B3F55C
:103FA000803F06F1540502D04FF4006100E0082183
:103FB0002B683A46D4F85C010B4340212B60C4F8CF
:103FC000E810C1B2124B20F0FF001039A3FB013101
:103FD000090962F003F9D4F85C21136843F0100377
:103FE000136003B0F0BD6FF4006CBAE76FF0080C1B
:103FF0000423B6E706F11C050821D9E76FF4006C2D
:104000000423AEE706F11C054FF40061D0E700BFC2
:10401000ABAAAAAA5D4B2DE9F04F1D7885B025B952
:104020000125284605B0BDE8F08F594C594BD4F80E
:1040300054665B68C3F30803002B40F0C981EFF3BB
:104040001183002B40F0C4814FF0E020D4F85436A7
:104050008169D4F854269342F8D1D4F8102E9142B5
:10406000F4D8D4F8147E4FF47A7202FB07F0401AA9
:10407000B0FBF7F002FB0300474F97F8B83B002B6B
:1040800000F027824549464AA1FB0631454D0026EE
:104090004909A2FB0132D7F87C3BD208C31A02EBD4
:1040A000820201933B467C37A1EB420203F5577332
:1040B000D1B207EB820B00930291019A002A04DB34
:1040C000D5F82431934200F391814FF4B4732F4A11
:1040D00003FB062393F85836002B00F0CC80D5F86C
:1040E0005C11AB6830481A68CBB221F0FF01103B7D
:1040F000A0FB03032D481B09C35C19444B68A98925
:104100001FFA83FED368CEF1160E23EA0103BEF137
:10411000070FD36040F2AF801F4A0121D2F8643309
:104120008A460133C2F864330022D5F864319046E0
:104130009C4603935CF8049B48461DE0DCF8009025
:10414000B8F1140FA9EB0003484631DC13F108095C
:1041500048BF03F117094FEA291308EB291803F1A7
:10416000FF39013102FA03F30CF1040C0AFA09F2E7
:104170008E4542EA03021BD38E45DFD8C8F11503F2
:10418000DCF800004FF01508E9E700BFA42000208C
:10419000B00A002400ED00E09C3100201F85EB51A7
:1041A000CDCCCCCCDC250020ABAAAAAA54731790A6
:1041B000B8F1150F40F00281BB49C2F38423C2F36A
:1041C000441001EB830301EB8000D3F8E832D0F810
:1041D000E8021B0243EA001302F01F00C2F3C432DC
:1041E00001EB800001EB8202D0F8E812D2F8E8225D
:1041F0000B4343EA023383EA132282EA121202F0EB
:104200000F020F2A40F0DA80C3F30F134FF6FF724C
:10421000934200F0D380B3F5606F00F0EC80009A19
:10422000938197F858200298824210D0DBF808104A
:104230003A68521A3A607A68DBF83010521A7A609B
:104240000022CBF80820CBF8302087F858003A68D5
:1042500001323A60DBF808200132CBF808204FF633
:10426000FF72934207D17B6801337B60DBF830300B
:104270000133CBF83030009B284601365C371433CD
:104280000BF15C0B05F5B4750093FFF731FE874B1E
:1042900093F8B83BB3423FF710AF844801210022A6
:1042A00080F86014C0F87C2B002B3FF4B9AE804935
:1042B00091F81026920700F18E80D1F84025D1F8B0
:1042C000540611680A6A02430A62012B3FF4A8AE41
:1042D000774991F87827970700F1A380D1F8A826AD
:1042E000D1F8BC0711680A6A02430A62022B3FF444
:1042F00097AE6F4991F8E028960700F19D80D1F8BC
:104300001028D1F8240911680A6A02430A62032BB3
:104310003FF486AE664991F8482A950700F19780E8
:10432000D1F87829D1F88C0A11680A6A02430A6226
:10433000042B3FF475AE5E4991F8B02B940700F161
:104340009180D1F8E02AD1F8F40B11680A6A02438F
:104350000A62052B3FF464AE554991F8182D900779
:1043600000F18B80D1F8482CD1F85C0D11680A6AF5
:1043700002430A62062B3FF453AE4D4991F8802E5A
:10438000920700F18580D1F8B02DD1F8C40E1168E4
:104390000A6A02430A62082B7FF442AE444A92F84A
:1043A000E83F9B0740F18A80D2F8182F414B1268F2
:1043B000D96A136A43EA8103136231E63B4AD2F8B1
:1043C00060330133C2F860331EB34FF6FF7328E742
:1043D00067F07AF950E63649D1F84025D1F854060D
:1043E00011680A6A42EA80020A626EE700252846DE
:1043F00005B0BDE8F08F627802EB420204EBC20226
:104400003244527C0D2A7FF40AAF802200998A77C9
:1044100007E703995822284866F046FF4FF6FF73D6
:10442000FFE62349D1F8A826D1F8BC0711680A6A2B
:1044300042EA80020A6259E71D49D1F81028D1F8F2
:10444000240911680A6A42EA80020A625FE7184991
:10445000D1F87829D1F88C0A11680A6A42EA8002F8
:104460000A6265E71249D1F8E02AD1F8F40B116825
:104470000A6A42EA80020A626BE70D49D1F8482CC9
:10448000D1F85C0D11680A6A42EA80020A6271E79B
:104490000749D1F8B02DD1F8C40E11680A6A42EA72
:1044A00080020A6277E700BFE0B616909C310020D8
:1044B000A4200020A4300020A4350020084BD3F80D
:1044C000182F03F580531268D96A136A0B431362DD
:1044D000A6E504490122C1F87C3B81F86024A0E5EF
:1044E000A42000209C310020474B93F8342A013A45
:1044F00052B2511C00F086804449500101EB421237
:1045000000B5C3F82C2A821D11F802E001EB020C61
:1045100093F8182E964561D09CF802E096455BD042
:1045200000F10A0211F802E001EB020C93F8192ED7
:1045300096454CD09CF802E0964546D000F10E021C
:1045400011F802E001EB020C93F81A2E964537D0D1
:104550009CF802E0964531D093F8322A62B300F11C
:10456000120211F802E001EB020C93F81B2E9645A3
:1045700039D09CF802E0964508BF0CF1020C32D00D
:1045800000F1160211F802E001EB020C93F81C2E68
:10459000964532D09CF802E0964508BF0CF1020C1B
:1045A0002BD01A3093F81D2E11F800C00844944502
:1045B0001FD0817891421BD05DF804FB0CF1020CF6
:1045C000BCF80020A3F8382AC6E70CF1020CBCF8AE
:1045D0000020A3F8422AB1E70CF1020CBCF800203D
:1045E000A3F8402A9CE7BCF80020A3F83A2AC7E7C2
:1045F00002300288A3F83E2ADEE7BCF80020A3F8C8
:104600003C2ACEE7704700BFB00A002448BA169093
:10461000012070475CF000BA5CF0FEB92DE9F0476C
:10462000344C94F8400A0EF0B3FB054694F8420A65
:104630000EF0AEFB064694F8380A0EF0A9FB94F88B
:10464000328A074694F83CAA94F83A0A94F83E4A0B
:104650000DB11823EB800EB11923F3800FB11A238B
:10466000FB80B8F1000F15D138460121FDF77CFC25
:10467000FEF774F928460121FDF776FC3046FDF778
:1046800073FC2846FEF76AF930460121BDE8F04781
:10469000FEF764B90EF07CFB814608B11B23C38092
:1046A00050460EF075FB804608B11C23C38020469F
:1046B0000EF06EFB044608B11D23C380384601216D
:1046C000FDF752FCFEF74AF94846FDF74DFC40461F
:1046D000FDF74AFC2046FDF747FC01214846FEF75E
:1046E0003DF940460121FEF739F901212046FEF748
:1046F00035F9BFE7B00A0024D0F850112422F8B5EC
:10470000C0F8D02104460A680023806804F5A87523
:1047100022F001020A600B604B608B6094F805C0C8
:10472000C4F8D83184F8CC31C4F8D031C4F8683139
:10473000C4F8D431C4F87031C4F864314FEA8C2322
:10474000B44A03F48053C4F854019142C4F8583178
:104750004FEA0C3303F40053C4F85C314FEA0C23E6
:1047600003F48063C4F8603100F0AE81237913F064
:10477000010002D00422C4F8642113F0020305D022
:10478000D4F8642142F00802C4F864211CF0010F3F
:104790000DD048B1D4F8782142F00202C4F8782153
:1047A0004FF48032C4F88021002B40F081819A4B75
:1047B00003F12C0053F8042B944200F03F819842FF
:1047C000F8D11CF0080F40F04F81D4F8D031002B05
:1047D00000F09C8124232846C4F8D0310B6823F0D4
:1047E00001030B6052F008FE012815D0D4F878318F
:1047F000002B40F09181D4F8503128465A6822F4B9
:1048000090425A609A6822F02A029A601A6842F02E
:1048100001021A6061F030FE2379DA076DD5D4F811
:104820002C21002A00F05F810023D4F8341104F118
:104830003C06E2634FF48062C4F8B8103046E2648C
:10484000C4E91133C4E91433C4E91833C4E91A3391
:104850004FF48033E3654FF48073A36562F00EFC80
:10486000304651F0BFF9D4F8D431C4F8C861202BD8
:1048700065673DD1E368626999B2CAB3B1FA81F064
:104880004009A9B394F8CCC1BCF1010F30D0222764
:10489000C4F8D80194F870C0C4F8D4715F4FA4F87C
:1048A000AC110121A7675E4F8C45C4F8A821E767CA
:1048B0005C4FC4F88C0084F8CC11C4F888700ED01A
:1048C00094F8717084F87010012FD4F8501100F032
:1048D0002B814FF4006384F87000C4F890301021ED
:1048E00000222023C4F8D81184F8CC21C4F8D03198
:1048F000E26B23795268C4F844219B0740F1888019
:10490000D4F83021002A00F0E3800023D4F83811D5
:1049100004F1B406C4F8B420C4F8C0304022C4F88E
:10492000D0303046C4E93233C4E93633C4E93833D1
:104930004FF48033C4F8D4304FF48063C4E92E12AE
:10494000C4F8C43062F09AFB304651F04BF90028AD
:1049500040F0B980D4F8B420334B34483449824213
:1049600018BF9A42C4F8C461C4F8EC5000F160006A
:104970000CBF012300232F4C8A4208BF43F00103E0
:104980003031A24208BF43F0010360348A4208BFBD
:1049900043F001033031824208BF43F0010300F5C8
:1049A00068708A4208BF43F0010301F55C71A242BE
:1049B00008BF43F0010304F568748A4208BF43F05E
:1049C00001033031824208BF43F0010360308A4264
:1049D00008BF43F001033031A24208BF43F0010396
:1049E0008A4208BF43F001033031824208BF43F0DE
:1049F00001038A4208BF43F001033BB90E4BD31AAF
:104A0000B3FA83F35B09002B00F0A7800023536007
:104A1000F8BD00BF000C00585C3D0020B528159083
:104A2000E9281590ED28159010000240280002405A
:104A30004000024058000240B8040240002C3FF4FD
:104A4000C0AE94F8F831002B3FF4BBAED4F8783107
:104A50001CF0080F43F00803C4F878314FF400430A
:104A6000C4F888313FF4B1AED4F8D031002B50D027
:104A700024232846C4F8D0310B6823F001030B60CF
:104A800052F0BAFC01283FF4C7AED4F87831002BBD
:104A900046D1D4F8503128465A6822F490425A60E0
:104AA0009A6822F022029A609A6842F00802ACE604
:104AB000D4F8783143F00103C4F878314FF400336F
:104AC000C4F87C3173E6FEE70423C4F874314DE684
:104AD000D4F8DC311A6842F080021A601A6842F099
:104AE00040021A60F8BDD4F8DC21116841F48071ED
:104AF0001160916841F001019160116841F020015D
:104B00001160116841F010011160F6E684F8CC31B3
:104B100060E684F8CC31ABE7284652F043FF6AE602
:104B2000284652F03FFFB4E79BB22431304651F0A3
:104B300071FA00287FF4D3AED4F8503184F8CC0158
:104B40001A6842F480721A609A6842F001029A6010
:104B50009A6842F040029A60CAE65360F8BD00BF0E
:104B6000F8B50446EFF31185502383F31288D0F88B
:104B700030311B6803F001031BB1EDB285F31188DE
:104B8000F8BDD0F8D021D0F8D4110A4302F02102A8
:104B9000212AF2D0D0E909218A424FD04BD80069AE
:104BA0001A46431A9BB2A262002284F8E021D4F88C
:104BB000D021202AE1D1A2695118DED0B3FA83F2C4
:104BC0005209002BD9D094F8CC010128D5D021204E
:104BD000A4F8A6314FF0010CC4F8D821C4F8D001D4
:104BE000D4F8C401C4F8A011A4F8A43184F8CCC14D
:104BF00070B31D4E90F834E0C6631C4EE645026566
:104C000006641B4EC6640CD090F83560D4F8507121
:104C1000664580F834C015D04FF4006380F8342026
:104C20004365102100222023C4F8D81184F8CC2138
:104C3000C4F8D031A1E7531A9BB2B4E7012380F83E
:104C4000E0319AE707F1280251F0E4F90028E8D1B1
:104C5000D4F8503100224021196284F8CC219A689E
:104C600042F080029A6088E78D281590B12815904F
:104C7000ED2815902DE9F8434D4C04EB8004D4F851
:104C8000C04B002C44D0D4F8E8511F46494B06468F
:104C9000A1602046236090466B68C4F8DC31AB6BA2
:104CA00063616B6BA361EB8FE360AB8F2361424B5E
:104CB000C4F8E4310EF02EFA6B68A88DC4F85031B8
:104CC000002863D194F8EE010EF062F8022117F08B
:104CD0000802034694F8EC9184F8F9111BD060B3F4
:104CE00017F0510F4FF00B0206F1010614BF0A2115
:104CF0001A2117F0410FC671827114BF402320237F
:104D000094F8EF211943FDF7E5FAD4F82C314BB3B1
:104D10002046BDE8F88318F0020F0ED068B14FF0BE
:104D20000B0C3B0680F806C006F1010C80F807C0AA
:104D30002FD494F8EF21FDF7CDFA48460EF028F86D
:104D40000028E2D018F0010FDFD00C22013602213A
:104D5000C671827194F8ED21FDF7BCFAD4F82C31BC
:104D6000002BD5D195F8321095F8300049095DF047
:104D70004DFB95F830300122104903F01F005B090C
:104D80008240204641F82320BDE8F8835DF054FDC1
:104D900098E7D4F850714FF0010C20213B6823F0C4
:104DA00008033B6084F8F9C1FDF794FAC5E700BF3A
:104DB0009C31002088BA1690453D109000E100E03B
:104DC000BFF34F8F0549064BCA6802F4E0621343F4
:104DD000CB60BFF34F8F00BFFDE700BF00ED00E0E9
:104DE0000400FA051648174AC168174B10B44FF66D
:104DF000FF0483B02140154C0A43C260D3F8D010A1
:104E0000D3F8DC20C4F8201E42F00052C3F8DC20A6
:104E1000D3F8DC2002F000520092009AD3F8DC2094
:104E200042F08042C3F8DC20D3F8DC3003F080434A
:104E30000193019B03B05DF8044B0EF061BB00BF12
:104E400000ED00E00004FA0500440258B00A002416
:104E500008B51D480023C0F88430BFF34F8F436965
:104E600023F480334361BFF34F8FD0F8803043F693
:104E7000E074C3F34E3CC3F3C90E4FEA4C1C0CEA7A
:104E80000401734641EA8372013BC0F874225A1C44
:104E9000F8D1ACF1200C1CF1200FF0D1BFF34F8FF3
:104EA000BFF36F8FBFF34F8FBFF36F8F4369002244
:104EB00023F400334361C0F85022BFF34F8FBFF398
:104EC0006F8F72B6FFF77CFF00ED00E001284FF016
:104ED00008000CBF0521012108B5FEF7BDFF72B621
:104EE000FFF76EFF890AA1F5801152292ED81F4BBA
:104EF00010B513F801E0BEF10D0F26D8EFF31184C1
:104F0000502383F3128803680BB384464CF8243F84
:104F1000043300F1140252F8041B19B1196052F85D
:104F2000043C04336245F6D10021E2B2196082F3F9
:104F30001188436A7BB10E4B4C2202FB0E3EDEF819
:104F4000242ED36843F00103D36010BD704700F1F5
:104F5000240C6346DDE7064B4C2202FB0E3EDEF8D6
:104F6000242ED36823F00103D36010BDE0B6169061
:104F7000B00A0024F0B50468A30AA3F58013522BED
:104F800026D8204DEB5C0D2B22D84079870801B341
:104F90001D4D4FF04C0E03EB830C0EFB035E80089F
:104FA00003EB4C0CDEF8246E4FF0020EBC440EFAFC
:104FB00000F0F768384305EB8C07B966BA67F06014
:104FC000124A2C20214600FB0320BDE8F04089E76F
:104FD000F0BD0D4D4C2603EB830C06FB035603EB93
:104FE0004C0CD6F824EE0226BC44DEF80C00BE4081
:104FF00020EA0600CEF80C0005EB8C008166826783
:10500000DEE700BFE0B61690B00A0024140B0024BF
:1050100003689B0AA3F58013522B00D97047144AEA
:10502000D35C0D2BFAD84FF04C0C10B4114C79B95D
:10503000417902220CFB03405DF8044B21FA02F394
:10504000D0F8241E9A40CB6823EA0203CB60704755
:10505000417902220CFB03405DF8044B21FA02F374
:10506000D0F8241E02FA03F3CA681343CB607047DA
:10507000E0B61690B00A002403689B0AA3F58013DB
:10508000522B10D8084AD25C0D2A0CD84079022342
:1050900006494FF04C0CD8400CFB02128340D2F86A
:1050A000242EDB4313617047E0B61690B00A00244B
:1050B00001490248FBF7DEBF140B00240000014049
:1050C00001490248FBF7D6BF140B00240000014041
:1050D00002494FF08040FBF7CDBF00BF400B0024DA
:1050E00001490248FBF7C6BF6C0B002400040040D6
:1050F00001490248FBF7BEBF980B0024000800409E
:1051000001490248FBF7B6BFC40B0024000C004065
:105110002DE9F843194E3569F3681D4010D04FF062
:105120000047DFF85C80B5FA85F227FA02F31F2A00
:105130006FEA030305EA0305336103D0002DF2D1C2
:10514000BDE8F883D8F86831A3B103F1FF39002333
:105150001FFA89F9C8F86831D8F86441002CEDD0FD
:1051600023682046494698476468002CF8D1002DF2
:10517000D9D1E5E7F16A1FFA81F9EDE700100040A7
:10518000B00A002401490248FBF774BF480C002410
:105190000004014010B5064C064804F5CC71FBF73D
:1051A00069FF04F5F8710448BDE81040FBF762BFE1
:1051B000B00A002400040140001C004001490248DC
:1051C000FBF758BF740C0024001800400149024846
:1051D000FBF750BFCC0C00240020004001490248DE
:1051E000FBF748BFF80C0024004001400149024889
:1051F000FBF740BF240D0024004401400149024850
:10520000FBF738BF500D0024004801402DE9F04164
:105210004FF425728EB000217B4866F0B9F87B4BC5
:105220007B4E4FF08041D3F8F02006F684153746C8
:1052300042F00102DFF8E08106F66814C3F8F020BE
:10524000D3F8F02002F001020092009AD3F8E8208F
:1052500042F00102C3F8E820D3F8E82002F001028E
:105260000192019AD3F8E82042F00202C3F8E82044
:10527000D3F8E82002F002020292029AD3F8E82062
:1052800042F00402C3F8E820D3F8E82002F0040258
:105290000392039AD3F8E82042F00802C3F8E8200A
:1052A000D3F8E82002F008020492049AD3F8E82028
:1052B00042F01002C3F8E820D3F8E82002F0100210
:1052C0000592059AD3F8E82042F02002C3F8E820BE
:1052D000D3F8E82002F020020692069AD3F8F020D4
:1052E00042F00202C3F8F020D3F8F02002F00202EC
:1052F0000792079AD3F8E82042F04002C3F8E8206A
:10530000D3F8E82002F040020892089AD3F8E82087
:1053100042F08002C3F8E820D3F8E82002F08002CF
:105320000992099AD3F8E82042F48072C3F8E82081
:10533000D3F8E82002F480720A920A9AD3F8F02097
:1053400042F48032C3F8F020D3F8F02002F4803227
:105350000B920B9AD3F8F02042F40032C3F8F020FD
:10536000D3F8F02002F400320C920C9AD3F8F0201B
:1053700042F48022C3F8F020D3F8F03003F4802305
:105380000D930D9B4246002301E054F833209142D7
:105390000BD00133112BF8D11C3700205DF04CFAF3
:1053A000AF420CD057F81C1CECE71A4A1C3702EB32
:1053B000C303B3F8600D5DF03FFAAF42F2D14FF096
:1053C0008041154F154C3A46002301E054F8332034
:1053D00091420BD00133112BF8D11C3600205DF027
:1053E0002BFAAE420CD056F81C1CECE7094A1C36CE
:1053F00002EBC303B3F8600D5DF01EFAAE42F2D1CA
:105400000EB0BDE8F08100BF140B00240044025828
:10541000D4BA1690E0B61690000001403CC4169035
:10542000800AA0F5801052280DD8074B1A5C0D2A6F
:1054300009D8064B4C2101FB0233D3F8242E136804
:1054400043F0010313607047E0B61690B00A0024E1
:1054500038B590F83DE08446BEF1020F5FFA8EF059
:1054600018D014469CF83D20012A02D102228CF863
:105470003D200C290DD8DFE801F05D0C0C0C290C47
:105480000C0C430C0C0C0E0040322146284650F008
:10549000C1FD002038BDDCF83050334AEA63334A9E
:1054A000EA6495F83420012AF3D00121DCF80020C9
:1054B00085F8341095F835100129E5D000234FF414
:1054C0000062184685F834306A6538BDDCF828502B
:1054D000254AEA63254AEA6495F83420012AD8D09F
:1054E0000121DCF8002085F8341095F835100129E9
:1054F000E4D138322146284650F08CFD002038BDDA
:10550000DCF82C50184AEA63184AEA6495F834200B
:10551000012ABED00121DCF8002085F8341095F86E
:1055200035100129CAD13C322146284650F072FD7F
:10553000002038BDDCF824500B49DCF80020E9637A
:105540000A49E96495F834100129A2D0012185F8AF
:10555000341095F835100129B0D13432214628464F
:1055600050F058FD002038BD2D281590D5271590F6
:105570001F4B984210B50ED003F5806398420AD0B5
:105580001C4A03F58043984218BF904203D003F5AC
:10559000806398421BD151F043FB174B1749DC69DC
:1055A000DA69C4F3022CC2F3022201EB0C0393F874
:1055B000A03203F01F03D8400F4B11491B69C3F3FE
:1055C000C03342EAC303CB5C03FB00F010BD51F0D3
:1055D00027FB094B0949DC69DA69C4F30214C2F3F9
:1055E00002120B1993F8A03203F01F03D840E3E72F
:1055F000000001400040014000440258E0B616900F
:10560000287317902DE9F04FB34B91B00024DFF8C9
:10561000F0820193B14BA3F6E45BB14E0025DFF8B5
:10562000BC92B30AA3F58013522B57D81BF8033052
:105630000D2B53D818F90370AA4B93F8B231012BF4
:1056400040F01081012F3FD14FF0000A51463846FB
:105650000EF040FC0EF0C6FC90F800C0BCF1000F4C
:1056600018BFBCF1540F14BF4FF0010C4FF0000CE9
:1056700040F0F4800AF1040A1FFA8AFABAF1100F16
:10568000E4D1002C00F0B580934A00210DE01BF816
:1056900003300D2B10D818F90330BB420FD0013165
:1056A00002F58672A14280F2A080906803689B0A8E
:1056B000A3F58013522BEAD90023BB42EFD14379E3
:1056C00099F805009842EAD10135082D14D059F80F
:1056D0001C6FB30AA3F58013522BA7D9814B93F803
:1056E000B231012BF0D001220027022BACD1002ACD
:1056F000AAD00135082DEAD1019B013403F5867348
:10570000042C019389D1784F0026DFF8F8A1774B5C
:10571000D3F86434B34265DDD7F80C80B8F1000FDC
:1057200060D0734BB8F804105D68D8F800003B7C7B
:10573000002DDFF8D4C10193B1FA81F38444C3F1A1
:105740001F0902934FEA9C2C40F3A980624A00246F
:1057500005E0013402F58672AC4200F09D801368CA
:105760006345F6D14FF486735B4A03FB0424019B27
:105770000322C7F8049001363B744FEA4903C7F887
:105780000C8002FA03FCBC6188F80620012288F82C
:10579000076002FA03F5A36C43EA0C03A364236DCC
:1057A0002B432365524B1B78002B60D0636D02FAAC
:1057B00009F943EA0903636581611FFA89F1D4F8A5
:1057C000AC00FAF7B1FD20462037FAF781FD01233E
:1057D000082E0AF1180A07F8043C07F8033C0AF8F7
:1057E000073C94D111B0BDE8F08FBCF1000F7FF4FD
:1057F0006BAFD9F8080000223E4B04E001320C33B5
:10580000102A00F02A8359688842F7D152B23046F4
:1058100099F80510FCF71AFC374A406800235168D4
:105820000133884217D0102B02F12402F7D14FF038
:10583000FF3303EBC303314A02EB830393F8583180
:10584000002B7FF441AF254BC5EBC50503EB850568
:10585000019B9D6050E7DBB2013BEAE7002C7FF43F
:1058600013AF31E7B7F1080218BF01223DE7029DEF
:105870004FEA014C02FA09F1C5F12F0589B202FA8B
:1058800005F51A46636D2B436365C0F818C0D4F85C
:10589000AC00FAF749FD96E7032C00F3E9804FF4DA
:1058A0008673134A03FB05231869002800F0C182A0
:1058B0005422C3F808C00CF1010C0E4C83F81021DF
:1058C00083F811C16B1C0A4A53600022054B93F800
:1058D000C931039383681EE0AC200020C4C4169035
:1058E00000040140A81B0024DC2400209C3100207F
:1058F000A42000204803002008040020CC0200203F
:1059000044731790583100200000FEA701320C3478
:10591000102A00F0A28261688B42F7D1417952B21D
:105920000068FCF793FB4FF48672B14BDFF804B3C9
:1059300002FB0532D0E90141C2E907410022594684
:105940004B6801329C4217D0102A01F12401F7D193
:10595000A84BAB4693F83421002A00F05C82A6489D
:10596000A649A74AA74BC0F8101CC0F8082CC0F8DD
:10597000183C11B0BDE8F08FD2B24FF48671013AF5
:1059800001FB05F39B4902EBC202049301EB820287
:105990009749194492F85831B1F810010593002B3A
:1059A000DDD1049CA2F85801974BA210086903FBB3
:1059B00002F2964B0068C2EBC20C02EBC20203EB90
:1059C0004C1C03F5607303EB4212D8F80030C1F8A9
:1059D000B4C0C1F8FC203322CB60C1F8B8208C22BF
:1059E000C1F80021FFF7C4FD894B1C19039B062B4E
:1059F00000F00E82072B874B874908BF1946874B5B
:105A0000874A18BF1A464FF48673B0FBF2F2B0FB18
:105A1000F1F1013A7648013903FB050392B2A3F88C
:105A2000BC10A3F87420226600220393A4F8582027
:105A30006266E265049A02F1580100F1080211441D
:105A40001A6910685FF0C0FB039B1A691068039223
:105A5000036843F08003036053790C2B0DD8DFE813
:105A600003F06F0C0C0C670C0C0C5E0C0C0C55004E
:105A700003236C4A82F8C83171E74FF486735C4A9D
:105A800003FB052359694FF0600C02680023CDF831
:105A900020C04FF4807C0A9322F00102CDF838C078
:105AA0004FF0010C0D930F930223CDF824C04FF05B
:105AB0000A0CCDE90BC3026008AA5FF009FA4C4B4F
:105AC0004FF4867202FB0532039B5269196800236A
:105AD000012A3DD0042A3BD0102A00F0AF81402A91
